:2000000097C00000B1C00000AFC00000ADC00000ABC00000A9C00000A7C00000A5C000009C
:20002000A3C00000A1C000009FC000000C9428080C94D40899C0000097C0000095C000004C
:2000400093C0000091C000008FC000008DC000008BC0000089C0000087C0000028C200009B
:2000600083C0000081C000007FC000007DC000007BC000002E03520055004D00420041009D
:2000800020002D002000410054006D00650067006100200032003500360030002000630054
:2000A0006F006D00700061007400690062006C006500000018035200520044002000280038
:2000C0007700770077002E00720075006D00620061002E0063006300290000000403090445
:2000E00009023E00020100C0640904000001020201000524001001042402060524060001E3
:20010000070582030800FF09040100020A00000007050402400005070583024000051201ED
:20012000100102000008EB034B2088880102DC0111241FBECFEFD2E0DEBFCDBF11E0A0E03F
:20014000B1E0E4E7F2E102C005900D92AE31B107D9F722E0AEE1B1E001C01D92A434B207F0
:20016000E1F773D00C9438094BCF292F33272230310539F123303105A9F02130310549F023
:2001800020E030E080E090E0FA0191838083C901089522E130E08EE191E0FA019183808301
:2001A000C9010895992781309105A1F082309105B9F0892B29F7ECEDF0E0249130E0CF013D
:2001C000E3CF2EE330E080EE90E0FA0191838083C9010895E4EBF0E0249130E0CF01D4CF1E
:2001E000E4E7F0E0249130E0CF01CECF84B7877F84BF28E10FB6F89420936000109260003F
:200200000FBE90E080E80FB6F89480936100909361000FBE87E690E09093CD008093CC0077
:2002200086E08093CA001092C8002093C900539A5A9A8AB180638AB98BB180638BB9F9D621
:2002400084E085BD5F9A579A0895D0DF5C9A5D982FEF81EE94E0215080409040E1F700C03D
:2002600000005C985D9A2FEF81EE94E0215080409040E1F700C000005C9A5D982FEF81EE81
:2002800094E0215080409040E1F700C000008EE1E82E81E0F82EF7014FB7F8948AE291E0DE
:2002A0009183808393838283958384838AEA91E09783868320E830E031872087138612863D
:2002C0004FBF0AEA11E0F8014FB7F89486EB91E091838083938382839583848386E392E092
:2002E0009783868331872087138612864FBF8BB18F7C8BB9789495E0D92E8FB7F8942091A7
:200300002801309129018FBF809126019091270128173907E1F080E091E017D297FD17C085
:20032000F701A081B1818C9380819181019691838083268137818217930709F496C02FB7C7
:20034000F894828593850196938782872FBF2FB7F8948091B4019091B5012FBFA89904C048
:200360008230910508F43DC0209101012F702093E9002091E80020FF34C0A89A8034910516
:2003800010F08FE390E0C82E882359F1C0E0D0E00BC02FB7F8948285938501979387828729
:2003A0002FBF2196CC16E9F05C98D0923602E091AC01F091AD01608180E091E055D1811198
:2003C00010C0F801828193810196938382832681378182179307E9F68481958193838283E4
:2003E000D8CF2FB7F89480912801909129012FBF892BC9F480913602882331F08150809307
:200400003602811101C05C9A80913702882331F0815080933702811101C05D9A80E091E00D
:200420007ED107D46ACFF701A281B3812D91B383A28386819781A817B90791F03FB7F89450
:20044000828593850197938782873FBF8091C80085FFFCCF2093CE005D98D0923702CACFF2
:200460008481958193838283E9CF848195819183808365CF8BB180638F7D8BB908958BB1E0
:200480008F7C8BB9089580E091E0C9D0811106C09FEC8BB1806389238BB908959FEF8BB1AD
:2004A000806389238BB9089580E091E07CC11F920F920FB60F9211242F933F938F939F93E9
:2004C000AF93BF93EF93FF939091CE008EB3843069F0FF91EF91BF91AF919F918F913F9177
:2004E0002F910F900FBE0F901F901895EAEAF1E0A081B1819C9380819181019691838083ED
:20050000268137818217930749F02FB7F894828593850196938782872FBFDBCF8481958112
:2005200091838083F2CF1F93CF93DF93EC01E98DE150E23008F462C010E0888D823009F4E5
:2005400056C08A8D873009F457C0883009F45BC0863009F43FC01092C9001092C8001092AA
:20056000CA002C893D894E895F89203885E238074105510589F1211581EE380741055105E3
:2005800031F1CA01B901969587957795679560587B47814E9F4F4AD6215031093093CD00D3
:2005A0002093CC001093CA008C899D89AE89BF898115914EA105B10541F182E08093C80055
:2005C00088E98093C900DF91CF911F91089520E130E0E4CF1260BFCF80E092ECA1E0B0E0FE
:2005E0008C8B9D8BAE8BBF8B20E130E0D7CF18608A8D873009F0A9CF1460ADCFF0E0E55EC8
:20060000FE4F10819ACF1660A6CF80E0D7CFFC01208920FD02C05F9A08955F980895CF9391
:20062000DF93EC014096FC018BE0DF011D928A95E9F782E08C83898783E08E8761E0CE0186
:2006400001961CD4811104C080E0DF91CF91089561E0CE01069612D48823B1F361E0CE01FF
:200660000B96DF91CF910AC40F931F93CF93DF931F92CDB7DEB72EB3243039F082E00F90EA
:20068000DF91CF911F910F910895FC010489158926893789012B022B032B81F381818F700A
:2006A0008093E9008091E80085FF04C06093F10080E0E5CF8091E8008E778093E800698320
:2006C00052D46981882391F3DACF2EB3243011F082E00895FC014489558966897789452BF6
:2006E000462B472BA9F381818F708093E9008091F200882349F09091E8008091E8008E7790
:200700008093E80095FF02C080E008952CD48111E0CF9091E8009E779093E80008952EB3A3
:20072000243009F00895FC014489558966897789452B462B472BB1F321812F702093E90064
:200740002091E80020FFEECFC0CF2EB3243019F5FC014489558966897789452B462B472B68
:20076000D1F086818F708093E9008091E80082FF12C08091F200882391F02091F10030E089
:200780008091F200811109C08091E8008B778093E800C90108952FEF3FEFC90108952FEFCD
:2007A0003FEFEECF08950F931F93CF93DF9300D0CDB7DEB72091E80023FF0AC0FC0120817D
:2007C00030E040914002509141024217530739F00F900F90DF91CF911F910F91089520914A
:2007E0003D02213209F459C0D0F5203289F720913C02213269F72091E800277F2093E8003E
:2008000003C02EB3222321F32091E80022FFF9CF5091F1004091F1003091F1002091F10071
:20082000FC01548B458B368B278B2091F100208F2091F100218F2091F100228F2091E8000A
:200840002B772093E80089839A836DD389819A810F900F90DF91CF911F910F9164CE2232E9
:2008600009F456C0233209F0B3CF20913C02213209F0AECF2091E800277F2093E8008983F7
:200880009A8351D360913E0289819A810F900F90DF91CF911F910F9185CF20913C02213AC5
:2008A00009F096CF2091E800277F2093E8002091E80020FFFCCFFC014489558966897789E6
:2008C0004093F100052F162F272F33270093F1008B01222733270093F100472F5527662775
:2008E00077274093F100208D2093F100218D2093F100828D8093F1008091E8008E778093CF
:20090000E8000F900F90DF91CF911F910F910BC320913C02213209F05BCF2091E800277F1F
:200920002093E80089839A83FED220913E0230913F0289819A81FC01318B208B0F900F9069
:20094000DF91CF911F910F9162CE1F93CF93DF93CDB7DEB7AC970FB6F894DEBF0FBECDBF1E
:20096000ECE3F2E08091F100819322E0E434F207C9F79ADD8091E80083FF11C080913C02DB
:2009800020913D02253009F45FC008F1283009F4E0C0293009F4C5C0263009F478C0809191
:2009A000E80083FF0AC08091E800877F8093E8008091EB0080628093EB00AC960FB6F8949A
:2009C000DEBF0FBECDBFDF91CF911F910895213021F008F481C0233011F7882309F4CCC0D6
:2009E0008230E9F680913E02811125C080914002909141028F709927009789F28093E9001A
:200A00003091EB0030FF17C0233009F40BC19091EB0090619093EB0021E030E001C0220FFA
:200A20008A95EAF72093EA001092EA008091EB0088608093EB001092E9008091E800877F21
:200A40008093E80070D2ABCF8111A9CF80913E0290913F028F779927182F9091E300907809
:200A6000982B9093E3008091E800877F8093E8005AD28091E80080FFFCCF8091E300806868
:200A80008093E30011118DC082E08EBB88CF8058823008F084CF80913E0290913F028C3D9E
:200AA00023E0920709F480C0AE01455D5F4F609140025BDB009709F472CF2091E800277FE1
:200AC0002093E800BC018BA59CA539D18091E8008B778093E80063CF803809F459C0823893
:200AE00009F05DCF80914002909141028F7099278093E9009091EB0095FB992790F91092D8
:200B0000E9008091E800877F8093E8009093F1001092F1008091E8008E778093E80003D27D
:200B20003ECF81113CCF80913E02823008F037CF9091E800977F9093E80080933802F3D1CF
:200B400080913802882309F463C084E08EBB9BDC26CF803809F023CF8091E800877F8093B1
:200B6000E800809138028093F1008091E8008E778093E800D8D113CF80913E02813009F0BF
:200B80000ECF81E0233009F080E080933A0253CF9091390280913A02882309F4B2CF926036
:200BA000B0CF83E08EBBFBCE83E08A838AE289835FB7F894DE01139620E03EE041E207C027
:200BC00090E0C7968D939D932F5F243181F0E32FF0E040935700849120FF03C082958F708B
:200BE0003F5F8F708A3060F790E0C096EBCF5FBF8091E800877F8093E8006AE270E0CE0144
:200C000001963CD08091E8008B778093E800C7CE8091E30087FF03C084E08EBB98CF81E0F4
:200C20008EBB95CF8091EB0080628093EB0003CF0895CF938EB38823A1F08091E9008F70E4
:200C40009091EC0090FD0FC090E0C92FC82B1092E9009091E80093FD0FC08C2F8F70809310
:200C6000E900CF91089590E8C92FC82B1092E9009091E80093FFF1CF68DEEFCF209142024C
:200C8000309143022617370758F06115710509F04EC02091E8002E772093E80020E030E0AF
:200CA00060E02115310511F46623B1F14EB3442309F43FC04530C9F14091E80043FD3BC0D1
:200CC0004091E80042FD28C04091E80040FFE9CF4091F20050E02115310599F048305105CE
:200CE00080F4FC0103C04830510559F081918093F100CF01215031094F5F5F4F2115310550
:200D000091F761E04830510509F060E04091E8004E774093E800C5CF8091E80082FD0DC0F1
:200D20008EB3882331F08530B9F783E008959B01B7CF82E0089581E0089580E00895209174
:200D40004202309143022617370758F06115710509F04CC02091E8002E772093E80020E0BC
:200D600030E0FC0140E02115310511F4442399F18EB3882309F43CC08530B1F18091E800AF
:200D800083FD38C08091E80082FD25C08091E80080FFE9CF8091F20090E02115310589F0F6
:200DA0008830910520F00DC08830910551F044914093F1003196215031090196211531056B
:200DC00099F741E0089709F040E08091E8008E778093E800C8CF8091E80082FD0DC08EB394
:200DE000882331F08530B9F783E008959B01B9CF82E0089581E0089580E00895853098F562
:200E00008093E900982F242F762F50E021FF19C03091EB003E7F3093EB003091ED003D7F6D
:200E20003093ED003091EB0031603093EB007093EC002093ED005093F0002091EE0027FFF0
:200E40001BC09F5F953079F09093E900891781F07091EC002091ED005091F00021FDD8CF4D
:200E60009F5F953089F78F708093E90081E00895242F762F50E0CACF80E00895EF92FF9266
:200E80000F931F93CF93DF93E62E6623B1F1EC018C010C5F1F4FF12C5881552341F1F801FF
:200EA0009081E981FA81D80111976C91852F8F70853058F5923088F146E0E930F10588F120
:200EC00028E030E090E09F5F220F331F2E173F07D0F39295907F492B6295660F660F607C54
:200EE000551F5527551F652B89DF882371F0F39425960B5F1F4FFE10CFCF81E0DF91CF9193
:200F00001F910F91FF90EF90089580E0DF91CF911F910F91FF90EF90089542E0E930F1057A
:200F200078F690E0D8CF80913C0287FD08C08091E80080FD0CC08EB38111F9CF0895809106
:200F4000E80082FD0AC08EB38111F9CF08958091E8008E778093E80008958091E8008B7797
:200F60008093E80008952091E4003091E50045E68091EC0080FF19C08091E80080FD19C0CF
:200F80008EB38823C1F08530C1F08091EB0085FD16C08091E4009091E5002817390741F34C
:200FA00041509C0129F784E008958091E80082FFE7CF80E0089582E0089583E0089581E055
:200FC000089540D042D08091D8008F778093D8008091D80080688093D8008091D8008F7DC7
:200FE0008093D80084E089BD86E089BD09B400FEFDCF1EBA1092380210923A0210923902BA
:2010000042E060E080E0FADE8091E1008E7F8093E1008091E20081608093E2008091E20087
:2010200088608093E2008091E0008E7F8093E0000895E3E6F0E080818E7F808381E0809327
:201040003B02BFCF1092E20008951092E10008951F920F920FB60F9211242F933F934F9321
:201060005F936F937F938F939F93AF93BF93EF93FF938091E10082FF04C08091E20082FDC5
:2010800082C08091E10080FF04C08091E20080FD67C08091E10084FF27C08091E20084FF70
:2010A00023C084E089BD86E089BD09B400FEFDCF8091D8008F7D8093D8008091E1008F7E91
:2010C0008093E1008091E2008F7E8093E2008091E20081608093E20080913802882309F46B
:2010E00059C084E08EBBC6D98091E10083FF04C08091E20083FD11C0FF91EF91BF91AF916F
:201100009F918F917F916F915F914F913F912F910F900FBE0F901F9018958091E100877FB0
:201120008093E10082E08EBB109238028091E1008E7F8093E1008091E2008E7F8093E2004C
:201140008091E20080618093E20042E060E080E055DE8091F00088608093F00069DDCCCF04
:201160008091E2008E7F8093E2008091E20080618093E2008091D80080628093D80019BC26
:201180001EBA7DD986CF8091E1008B7F8093E1004FDD77CF8091E30087FF03C084E08EBB80
:2011A000A2CF81E08EBB9FCF1F920F920FB60F9211242F933F934F935F936F937F938F931B
:2011C0009F93AF93BF93CF93EF93FF938091E9008F709091EC0090FD27C0C0E0C82B109224
:2011E000E9008091F000877F8093F0007894ADDB1092E9008091F00088608093F000CF70B2
:20120000C093E900FF91EF91CF91BF91AF919F918F917F916F915F914F913F912F910F9033
:201220000FBE0F901F901895C0E8D8CFA1E21A2EAA1BBB1BFD010DC0AA1FBB1FEE1FFF1F98
:20124000A217B307E407F50720F0A21BB30BE40BF50B661F771F881F991F1A9469F760953D
:201260007095809590959B01AC01BD01CF010895F894FFCF008340000001044000000182D6
:20128000080000010000000000000000000000302000FFFFFFFFFFFFFFFFFFFFFFFFFFFF03
:2012A000FFFFFFFFFFFFFFFFFFFFFFFFFFFFFFFFFFFFFFFFFFFFFFFFFFFFFFFFFFFFFFFF4E
:2012C000FFFFFFFFFFFFFFFFFFFFFFFFFFFFFFFFFFFFFFFFFFFFFFFFFFFFFFFFFFFFFFFF2E
:2012E000FFFFFFFFFFFFFFFFFFFFFFFFFFFFFFFFFFFFFFFFFFFFFFFFFFFFFFFFFFFFFFFF0E
:20130000FFFFFFFFFFFFFFFFFFFFFFFFFFFFFFFFFFFFFFFFFFFFFFFFFFFFFFFFFFFFFFFFED
:203000000C943A180C9473180C9473180C9473180C9473180C9473180C9473180C94731891
:203020000C9473180C9473180C9473180C947F1D0C9473180C9473180C9473180C94731827
:203040000C9473180C9473180C94401A0C9473180C9473180C9473180C9473180C94731849
:203060000C9473180C9473180C9473180C9473180C94731811241FBECFEFD2E0DEBFCDBFCE
:2030800004B603FE19C080917F019091800182349C4D91F484B7877F84BF88E10FB6F89407
:2030A00080936000109260000FBE1092800110927F01E0E0F0E0099511E0A0E0B1E0EAEF80
:2030C000FDE302C005900D92A236B107D9F721E0A2E6B1E001C01D92AF37B207E1F70E9417
:2030E000F7190C94FB1E0C94001807B600FCFDCFF999FECF23E0FB0120935700E89507B628
:2031000000FCFDCF81E180935700E895089507B600FCFDCFF999FECF25E0FB012093570012
:20312000E89507B600FCFDCF81E180935700E895089507B600FCFDCFF999FECF21E0FB01C6
:203140000A0120935700E8951124089521E2FC01209357008491089529E0FC01209357003F
:2031600084910895E1E0F0E089E0809357008491089507B600FCFDCFF999FECF809599E015
:20318000E1E0F0E0082E90935700E895089515C09091F20091110EC09091E8009B7F909336
:2031A000E80003C09EB3992351F09091E80092FFF9CF02C09091F10081508111E9CF089528
:2031C00030916A0120916901909168018091670190936D0180936E01C90190936F01809322
:2031E000700108951F93CF93DF9300D000D000D0CDB7DEB7809174018823D9F08091650141
:20320000843049F480916601811107C0809167018F3F19F40EC0853061F08AE08093010145
:2032200083E0809373018091EB0080628093EB00D4C080916501843009F44CC030F481302B
:2032400059F0833009F0C9C01EC0853009F498C0863009F0C2C0B5C010916601123008F020
:20326000BCC00E94E01811110CC080916D0190916E0123E0FC0120935700E89507B600FCFB
:20328000FDCF85E009C080916601882311F0823031F40E94E01889E0809301019EC0813012
:2032A00009F09BC0E0E0F0E084918F3F69F010927101F0936E01E0936D018AE08093010188
:2032C00085E08093730189C03196E11520E3F20759F783C080916601833071F581E0809368
:2032E000620180916B0190916C0120916701892B61F0213009F071C090916A0180916901C0
:20330000909363018093640168C0211112C082E49CED9093800180937F012CE088E190E077
:203320000FB6F894A895809360000FBE2093600054C01092000151C081114FC080916701CA
:203340008F3F09F04AC0E0E0F0E083E095E080935700E89507B600FCFDCF90935700E895D1
:2033600007B600FCFDCFE058FF4FE11520E3F20771F781E180935700E895109274012DC09B
:2033800080E28C838CED8D838BEF8E838EE1898384E98A8389E88B83809167019091660133
:2033A000911105C0FE01E80FF11D848107C09130A1F4FE01BF97E80FF11D8081809372019F
:2033C0000CC080916601833041F480916701811104C0809168018093710126960FB6F894E6
:2033E000DEBF0FBECDBFDF91CF911F91089584B7877F84BF88E10FB6F89480936000109267
:2034000060000FBE90E080E80FB6F89480936100909361000FBEC1E0C5BF82E085BF0E9424
:203420006F1D8AB180638AB98BB180638BB9C0936F0083E0809381008BB180638F7E8BB913
:20344000789402C00E94DC1E809100018111FACF809162018111F6CF0E94211D8AB18F7CA4
:203460008AB98BB18F7C8BB910926F001092810081E085BF15BEE0916301F0916401099579
:203480001F920F920FB60F9211248F9380E389B98F910F900FBE0F901F901895BF92CF923F
:2034A000DF92EF92FF920F931F93CF93DF93809177018F77813209F0F7C180E389B98091B8
:2034C0007D0190917E0190936C0180936B0180917801833009F49EC130F4813069F0823046
:2034E00009F0E2C101C1853009F4BBC108F4B1C1863009F0D9C1C5C18091E800877F8093F1
:20350000E80080916201882321F00E94F2181092620180916B0190916C01009761F120913D
:20352000E80022FD04C02EB32111F9CFBDC12091F10020936501019790936C0180936B0105
:20354000E6E6F1E013C08091F100819380916B0190916C01019790936C0180936B0181E0D2
:20356000EB36F80719F40E94F21805C08091F2008111E9CFF8CF80910101853009F0B0C068
:2035800080916B0190916C01892B21F482E080930101A6C08AE10E94C71800916D011091EE
:2035A0006E01802F8F710E94C718C0916F01D09170012196C01BD10B8091660181118BC016
:2035C000D695C795302FF12E20917101E22ED12CC80110E001E025E0C22E43E0B42E45C0DD
:2035E0002091F2002223E9F02197432F5F2D6E2D7D2DF091F100E091F1002F2F3E2FFA0175
:20360000090100935700E89511241F5F4E5F5F4F6F4F7F4F342FF52EE62ED72E103481F447
:2036200011C02091E8002B7F2093E80004C02EB3222309F439C12091E80022FFF8CFD4CFD6
:20364000209799F4FC01C0925700E89507B600FCFDCF209751F0FA01B0925700E89507B6B8
:2036600000FCFDCFDB01CA0110E0209709F0B8CF80916F019091700190936E0180936D018E
:2036800081E180935700E89528C08091F200882399F021976091F10080916D0190916E0119
:2036A0000E94ED1E80916D0190916E01019690936E0180936D010FC08091E8008B7F8093BF
:2036C000E80004C08EB3882309F4EEC08091E80082FFF8CFDECF2097C1F680E10E94C71869
:2036E0008091E8008B7F93C08091E800877F8093E80004C08EB3882309F4D6C08091E8003E
:2037000080FFF8CF80910101893091F08A3059F480916601813039F490916D0180916E01AA
:203720009093F10002C0809172018093F1006CC020916D0130916E01C0916F01D09170011D
:203740002196C21BD30B80916601811131C0D695C795C901A0917101B0E01FC02091F200B6
:20376000203261F0FC01259134912093F1003093F1000296A11DB11D21970FC02091E80092
:203780002E7F2093E80004C02EB3222309F48CC02091E80020FFF8CFE5CF2097F9F68091C4
:2037A0006F019091700190936E0180936D0129C0823039F524C08091F200803289F0219761
:2037C00000916D0110916E01C8010E94E51E8093F1000F5F1F4F10936E0100936D010FC0AA
:2037E0008091E8008E7F8093E80004C08EB3882309F45AC08091E80080FFF8CFE0CF20975C
:20380000D1F682E0809301018091E8008E7F8093E8003FC08091E800877F8093E80004C0AC
:203820008EB3882309F440C08091E80080FFF8CF809173018093F1001092F1001092F100B1
:203840001092F100809101018093F1001092F100DBCF8091E800877F8093E8001092730171
:2038600018C08091E800877F8093E80003C08EB38823D1F08091E80080FFF9CF80910101B3
:2038800054CF8091E800877F8093E80082E080930101DF91CF911F910F91FF90EF90DF90F7
:2038A000CF90BF900C94021DDF91CF911F910F91FF90EF90DF90CF90BF900895292F30E04B
:2038C00033272230310539F02330310549F02130310589F00BC02BE130E084E391E01EC07E
:2038E000882371F0813089F08230A1F020E030E080E090E013C022E130E08FE491E00EC0D7
:2039000024E030E080E391E009C028E130E086E191E004C022E130E082E091E0FA0191834C
:203920008083C901089520917D0130917E012617370748F06115710539F42091E8002E7F9C
:203940002093E80001C0B9019C0180E033C09EB3992309F442C0953009F441C09091E80089
:2039600093FD39C09091E80092FD2FC09091E80090FF20C08091F20090E0F901821B930B17
:2039800005C021912093F100615071099F01280F391F6115710519F02032310590F381E051
:2039A0002032310509F080E09091E8009E7F9093E8009F016115710551F68111C8CF05C034
:2039C0008EB3882351F0853051F08091E80082FFF7CF80E0089581E0089582E0089583E027
:2039E0000895EBEEF0E0808181608083EDEEF0E010826093EC0040838091EE00881F882768
:203A0000881F08958091770187FD05C08091E80080FF0DC010C08091E80082FD04C08EB3FE
:203A20008111F9CF08958091E8008B7F07C08EB38111ECCF08958091E8008E7F8093E80099
:203A400008950E94791D0E947C1DE0EEF0E0808181608083E8EDF0E080818F77808319BC4F
:203A6000E3E6F0E08081816080831092760108950E94791D0E947C1D8091D8008F7780939D
:203A8000D8008091D80080688093D8008091D8008F7D8093D80084E089BD86E089BD09B49F
:203AA00000FEFDCF1EBA1092750142E260E080E00E94F11C8091E1008E7F8093E1008091D5
:203AC000E20081608093E2008091E20088608093E2008091E0008E7F8093E0000895E3E607
:203AE000F0E080818E7F808381E0809376010C94381D1092E20008951092E10008951F9213
:203B00000F920FB60F9211242F933F934F935F936F937F938F939F93AF93BF93EF93FF93F1
:203B20008091E10080FF17C08091E20080FF13C08091E2008E7F8093E2008091E20080612F
:203B40008093E2008091D80080628093D80019BC1EBA0E94DB1E8091E10084FF2FC08091FD
:203B6000E20084FF2BC084E089BD86E089BD09B400FEFDCF8091D8008F7D8093D800809127
:203B8000E1008F7E8093E1008091E2008F7E8093E2008091E20081608093E20080917501FE
:203BA000882311F084E007C08091E30087FF02C083E001C081E08EBB0E94DB1E8091E10097
:203BC00083FF23C08091E20083FF1FC08091E100877F8093E10082E08EBB1092750180916C
:203BE000E1008E7F8093E1008091E2008E7F8093E2008091E20080618093E20042E260E0C1
:203C000080E00E94F11C0E94DB1EFF91EF91BF91AF919F918F917F916F915F914F913F915A
:203C20002F910F900FBE0F901F9018951F93CF93DF9300D0CDB7DEB7E7E7F1E08091F1004D
:203C4000819381E0EF37F807C9F70E944E1A8091E80083FF9CC08091770190917801963040
:203C600009F443C030F4992359F0953009F08FC016C0983009F45BC0993009F088C06AC024
:203C8000803819F0823809F082C08091E800877F8093E8001092F1001092F10053C08111A9
:203CA00076C08091790190917A018F779927182F9091E3009078982B9093E3008091E800CC
:203CC000877F8093E8000E94021D8091E80080FFFCCF8091E30080688093E300112311F0D8
:203CE00083E001C082E08EBB52C08058823008F04EC0AE014F5F5F4F60917B018091790150
:203D000090917A010E945E1C009709F440C02091E800277F2093E800BC0189819A810E94F9
:203D2000931C8091E8008B7F8093E80030C0803871F58091E800877F8093E8008091750147
:203D40008093F1008091E8008E7F8093E8000E94021D1DC081111BC0909179019230B8F44A
:203D60008091E800877F8093E800909375010E94021D80917501811104C08091E30087FF98
:203D800002C084E001C081E08EBB0E94DB1E8091E80083FF0AC08091E800877F8093E800B8
:203DA0008091EB0080628093EB000F900F90DF91CF911F91089508958EB3882329F0809119
:203DC000E80083FD0C94161E0895F999FECF92BD81BDF89A992780B50895262FF999FECF46
:203DE0001FBA92BD81BD20BD0FB6F894FA9AF99A0FBE01960895F894FFCF010212034C0049
:203E00005500460041002000440046005500000018034400650061006E0020004300610070
:203E20006D0065007200610000000403090409021B0001010080320904000000FE010200E1
:203E40000921030000000C10011201100100000020EB03EF2F00000102000100FFFFFFFFC8
:203E6000FFFFFFFFFFFFFFFFFFFFFFFFFFFFFFFFFFFFFFFFFFFFFFFFFFFFFFFFFFFFFFFF62
:203E8000FFFFFFFFFFFFFFFFFFFFFFFFFFFFFFFFFFFFFFFFFFFFFFFFFFFFFFFFFFFFFFFF42
:203EA000FFFFFFFFFFFFFFFFFFFFFFFFFFFFFFFFFFFFFFFFFFFFFFFFFFFFFFFFFFFFFFFF22
:203EC000FFFFFFFFFFFFFFFFFFFFFFFFFFFFFFFFFFFFFFFFFFFFFFFFFFFFFFFFFFFFFFFF02
:203EE000FFFFFFFFFFFFFFFFFFFFFFFFFFFFFFFFFFFFFFFFFFFFFFFFFFFFFFFFFFFFFFFFE2
:203F0000FFFFFFFFFFFFFFFFFFFFFFFFFFFFFFFFFFFFFFFFFFFFFFFFFFFFFFFFFFFFFFFFC1
:203F2000FFFFFFFFFFFFFFFFFFFFFFFFFFFFFFFFFFFFFFFFFFFFFFFFFFFFFFFFFFFFFFFFA1
:203F4000FFFFFFFFFFFFFFFFFFFFFFFFFFFFFFFFFFFFFFFFFFFFFFFFFFFFFFFFFFFFFFFF81
:203F6000FFFFFFFFFFFFFFFFFFFFFFFFFFFFFFFFFFFFFFFFFFFFFFFFFFFFFFFFFFFFFFFF61
:203F8000FFFFFFFFFFFFFFFFFFFFFFFFFFFFFFFFFFFFFFFFFFFFFFFFFFFFFFFFFFFFFFFF41
:203FA0000C9475180C9487180C9499180C94A6180C94AC180C94B2180C94B918089508956D
:203FC000089508950895FFFFFFFFFFFFFFFFFFFFFFFFFFFFFFFFFFFFFFFFFFFFFFFFFFFF24
:203FE000DFCFE0CFE1CFE2CFE3CFE4CFE5CFE6CFE6CFE6CFE6CFE6CF0030000010DFFBDC6B
:00000001FF
