:200000000C94A5240C94D2240C94D2240C94D2240C94D2240C94D2240C94D2240C94D2245D
:200020000C94D2240C94D2240C94D2240C94D2240C94D2240C94D2240C94D2240C94D22410
:200040000C94D2240C940F910C94D2240C94D2240C94D2240C94D2240C94BD9A0C94FAFCE5
:200060000C94D2240C9433660C94D2240C94D2240C94D2240C94D2240C94D2240C94D2242D
:200080000C94D2240C94D2240C94D2240C94D2240C94D2240C94D2240C94D2240C94D2F4E0
:2000A0000C94D2240C94D2240C94D2240C94D2240C94D2240C94D2240C94D2240C94D22490
:2000C0000C94D2240C94D2240C94D2240C94D2240C94D2240C94D2240C94D2240C94D22470
:2000E0000C94D224084AD73B3BCE016E84BCBFFDC12F3D6C74319ABD56833DDA3D00C77F8A
:2001000011BED9E4BB4C3E916BAAAABE000000803F05A84CCDB2D44EB93836A9020C50B9C0
:20012000918688083CA6AAAA2ABE000000803F4D383420582059205A2045006563686F3AD9
:200140000043616E6E6F7420656E746572207375626469723A20004D3234004D3233202551
:2001600073006175746F25692E67004572726F723A006572726F722077726974696E67207E
:20018000746F2066696C65004E6F74205344207072696E74696E67002F0053442070726918
:2001A0006E74696E67206279746520002E0044656C6574696F6E206661696C65642C2046B2
:2001C000696C653A200046696C652064656C657465643A002E006F70656E206661696C65D9
:2001E000642C2046696C653A200057726974696E6720746F2066696C653A20002E006F7067
:20020000656E206661696C65642C2046696C653A20002E006F70656E206661696C65642CCF
:200220002046696C653A200046696C652073656C6563746564002053697A653A2000466917
:200240006C65206F70656E65643A20002E006F70656E206661696C65642C2046696C653A6D
:2002600020004E6F772066726573682066696C653A20004E6F7720646F696E672066696C18
:20028000653A20002220706F73002220706172656E743A2200535542524F5554494E4520B3
:2002A00043414C4C207461726765743A2200747279696E6720746F2063616C6C2073756259
:2002C0002D67636F64652066696C6573207769746820746F6F206D616E79206C6576656C61
:2002E000732E204D4158206C6576656C2069733A0053442063617264206F6B006F70656EEC
:20030000526F6F74206661696C656400766F6C756D652E696E6974206661696C6564005362
:200320004420696E6974206661696C006563686F3A0048617264636F646564204465666102
:20034000756C742053657474696E6773204C6F616465640053746F726564207365747469B4
:200360006E677320726574726965766564002044002049002020204D333031205000504934
:20038000442073657474696E67733A00205A0020590020204D323036205800486F6D652015
:2003A0006F666673657420286D6D293A00204500205A0020580020420020540020204D3245
:2003C0003035205300416476616E636564207661726961626C65733A20533D4D696E2066C2
:2003E0006565647261746520286D6D2F73292C20543D4D696E2074726176656C2066656537
:20040000647261746520286D6D2F73292C20423D6D696E696D756D207365676D656E7420E5
:2004200074696D6520286D73292C20583D6D6178696D756D205859206A65726B20286D6D1E
:200440002F73292C20205A3D6D6178696D756D205A206A65726B20286D6D2F73292C202031
:20046000453D6D6178696D756D2045206A65726B20286D6D2F73290020540020204D32307B
:2004800034205300416363656C65726174696F6E3A20533D616363656C65726174696F6E17
:2004A0002C20543D7265747261637420616363656C65726174696F6E00204500205A002061
:2004C000590020204D3230312058004D6178696D756D20416363656C65726174696F6E2043
:2004E000286D6D2F7332293A00204500205A0020590020204D3230332058004D6178696DD5
:20050000756D2066656564726174657320286D6D2F73293A00204500205A00205900202067
:200520004D393220580053746570732070657220756E69743A0053657474696E6773205337
:20054000746F726564006563686F3A004572726F723A0053544F505045442E2000507269C8
:200560006E7465722073746F707065642064756520746F206572726F72732E2046697820F0
:20058000746865206572726F7220616E6420757365204D39393920746F2072657374617244
:2005A000742E202854656D70657261747572652069732072657365742E205365742069740D
:2005C0002061667465722072657374617274696E6729004B494C4C45442E20005072696EC1
:2005E0007465722068616C7465642E206B696C6C28292063616C6C656421006F6B0052659C
:2006000073656E643A20002200556E6B6E6F776E20636F6D6D616E643A2022004368616ECF
:2006200067652066696C616D656E74006C636420636F6E74726173742076616C75653A2026
:2006400000486F74656E64206F6666736574733A007A5F6D61783A20007A5F6D696E3A20F4
:2006600000795F6D61783A2000795F6D696E3A2000785F6D61783A2000785F6D696E3A20A0
:2006800000205A3A0020593A0020436F756E7420583A200020453A00205A3A0020593A00F2
:2006A000583A004649524D574152455F4E414D453A4D61726C696E2056313B20537072698E
:2006C0006E7465722F6772626C206D617368757020666F722067656E36204649524D574100
:2006E00052455F55524C3A68747470733A2F2F6769746875622E636F6D2F6F70656E3364A4
:20070000656E67696E656572696E672F69335F4265726C696E2050524F544F434F4C5F5681
:20072000455253494F4E3A312E30204D414348494E455F545950453A6933204265726C6986
:200740006E2045585452554445525F434F554E543A3220555549443A303030303030303033
:200760002D303030302D303030302D303030302D3030303030303030303030300A0069339F
:20078000204265726C696E204F66662E006933204265726C696E2072656164792E00426552
:2007A0006420646F6E652E0020423A0020453A00543A004265642048656174696E672E00FF
:2007C00048656174696E6720646F6E652E0020573A0020453A00543A0048656174696E67C7
:2007E0002E2E2E002042403A0020403A00202F003A00205400202F0020423A00202F006F53
:200800006B20543A002569206D696E2C2025692073656300456E642066696C65206C697359
:200820007400426567696E2066696C65206C697374004E6F206D6F76652E00526573756DF5
:20084000696E67207072696E74005761697420666F7220757365722E2E2E00536C656570AF
:200860002E2E2E00FFFFFF00004D4300004D43000048430000A0400000A0400000803F00C7
:20088000000CC2000000C10000000000000000000000000000000000004D4300004D4300A9
:2008A000004843256920686F757273202569206D696E7574657300446F6E65207072696E9C
:2008C00074696E672066696C650053544F505045442E20005072696E7465722073746F706F
:2008E0007065642064756520746F206572726F72732E2046697820746865206572726F7281
:2009000020616E6420757365204D39393920746F20726573746172742E202854656D706566
:200920007261747572652069732072657365742E2053657420697420616674657220726545
:200940007374617274696E6729006F6B004E6F204C696E65204E756D62657220776974685E
:2009600020636865636B73756D2C204C617374204C696E653A20004E6F20436865636B73F4
:20098000756D2077697468206C696E65206E756D6265722C204C617374204C696E653A2046
:2009A00000636865636B73756D206D69736D617463682C204C617374204C696E653A20008C
:2009C0004C696E65204E756D626572206973206E6F74204C617374204C696E65204E756DED
:2009E0006265722B312C204C617374204C696E653A20004D31313000446F6E6520736176B1
:200A0000696E672066696C652E006F6B004D3239002020506C616E6E6572427566666572AE
:200A200042797465733A20002046726565204D656D6F72793A20004A756C2031332032308F
:200A4000313400436F6D70696C65643A2000284D2E57696E6B6C6572404C415944524F50D0
:200A60002E434F4D2C2072756D626120636F6E6669672900207C20417574686F723A2000BE
:200A80004A756C20313320323031342031303A34373A303700204C61737420557064617427
:200AA00065643A2000312E302E30004D61726C696E0020536F6674776172652052657365A9
:200AC0007400205761746368646F67205265736574002042726F776E206F75742052657344
:200AE0006574002045787465726E616C20526573657400506F776572557000737461727497
:200B0000002200656E717565696E672022002200656E717565696E672022006563686F3A7C
:200B20000020746F6F206C6F6E6720657874727573696F6E2070726576656E746564002055
:200B4000636F6C6420657874727573696F6E2070726576656E746564007C3C3E5E2B3D3FFA
:200B60002F5B5D3B2C2A225C0045313A200045303A20005A3A2000593A2000583A20004D7A
:200B800053312C4D53322050696E730A0024F404D9201BC40C5C0E9804C4095F02650771FE
:200BA00001F405F900FB04B30048048700C10369005803550003034500BE023A00840231E4
:200BC0000053022A002902250004022000E4011C00C8011900AF0117009801140084011331
:200BE00000710110006101100051010E0043010D0036010B002B010B0020010B001501098C
:200C0000000C01090003010800FB000800F3000800EB000700E4000600DE000600D8000616
:200C200000D2000600CC000500C7000500C2000500BD000400B9000400B5000400B100048C
:200C400000AD000400A9000400A5000300A20003009F0004009B0003009800030095000276
:200C60000093000300900003008D0002008B00030088000200860002008400030081000212
:200C8000007F0002007D0002007B0002007900020077000100760002007400020072000183
:200CA00000710002006F0002006D0001006C0002006A0001006900020067000100660001CF
:200CC0000065000100640002006200010061000100600001005F0002005D0001005C000106
:200CE000005B0001005A000100590001005800010057000100560001005500010054000130
:200D00000053000000530001005200010051000100500001004F0001004E0000004E000149
:200D2000004D0001004C0001004B0000004B0001004A00010049000100480000004800015B
:200D4000004700010046000000460001004500000045000100440001004300000043000167
:200D60000042000000420001004100000041000100400001003F0000003F0001003E00006D
:200D8000003E0001003D0000003D0001003C0000003C0000003C0001003B0000003B00016D
:200DA000003A0000003A00010039000000390001003800000038000000380001003700006B
:200DC000003700010036000000360000003600010035000000350000003500010034000064
:200DE000003400000034000100330000003300000033000100320000003200000032000159
:200E0000003100000031000000310001003000000030000000300001002F0000002F00004F
:200E2000002F0000002F0001002E0000002E0000002E0001002D0000002D0000002D000041
:200E4000002D0001002C0000002C0000002C0000002C0001002B0000002B0000002B000032
:200E6000002B0001002A0000002A0000002A0000002A000100290000002900000029000022
:200E800000290000002900010028000000280000002800000028000000280001002700000F
:200EA0000027000000270000002700000027000100260000002600000026000000260000FD
:200EC0000026000100250000002500000025000000250000002500000025000100240000E8
:200EE0000024000000240000002400000024000100230000002300000023000000230000D5
:200F00000023000000230000002300010022000000220000002200000022000000220000BD
:200F20000022000100210000002100000021000000210000002100000021000000210001A6
:200F4000002000000020000000200000002000000020000000200000002000000020000190
:200F6000001F0000001F0000001F0000001F0000001F0000001F0000001F0001001E000079
:200F8000001E0000001E0000001E00000024F4D43050C38E20C2A24017828B7011127A91B4
:200FA0000D816CD90AA861E108C7586607615143061E4B5D05C145A7041A411104093D9811
:200FC00003713931034036DB0265339102D4305402802E1D02632CEE01752AC501B028A030
:200FE00001102781018F2564012B244B01E0223401AC211F018D200D01801FFC00841EED7A
:2010000000971DDF00B81CD200E61BC600201BBC00641AB200B219A8000A19A0006A189958
:2010200000D117910040178B00B516840031167E00B31579003A157300C7146F0058146A1E
:2010400000EE1366008813630025135E00C7125B006C12570015125400C111510070114F1E
:201060000021114B00D61049008D1047004610440002104200C00F4000800F3E00420F3C89
:2010800000060F3B00CB0E3800930E37005C0E3500270E3400F30D3200C10D3100900D3011
:2010A00000600D2E00320D2D00050D2C00D90C2B00AE0C2900850C29005C0C2700350C2747
:2010C000000E0C2600E80B2400C40B2400A00B23007D0B23005A0B2100390B2100180B201F
:2010E00000F80A1F00D90A1E00BB0A1E009D0A1D00800A1D00630A1C00470A1B002C0A1B3A
:2011000000110A1A00F7091A00DD091900C4091900AB091900920917007B091800630917FD
:20112000004C09160036091600200916000A091500F5081500E0081400CC081400B80814BE
:2011400000A4081400900813007D0812006B081300580812004608120034081100230811AC
:20116000001208110001081100F0071000E0071000D0071000C0071000B0070F00A10710F0
:201180000091070E0083070F0074070F0065070E0057070E0049070E003B070D002E070EB0
:2011A0000020070D0013070D0006070D00F9060C00ED060D00E0060C00D4060C00C8060CFD
:2011C00000BC060C00B0060C00A4060B0099060C008D060B0082060B0077060B006C060BE9
:2011E0000061060A0057060B004C060A0042060A0038060A002E060A0024060A001A060A84
:20120000001006090007060A00FD050900F4050900EB050900E2050900D9050900D00509DD
:2012200000C7050900BE050900B5050800AD050800A50509009C050800940508008C0508FB
:2012400000840508007C050800740508006C050700650508005D050700560508004E0507E3
:2012600000470507004005080038050700310507002A050700230507001C0506001605079F
:20128000000F0507000805060002050700FB040600F5040700EE040600E8040600E2040736
:2012A00000DB040600D5040600CF040600C9040600C3040600BD040600B7040600B10405AF
:2012C00000AC040600A6040600A00405009B04060095040500900406008A04050085040501
:2012E00000800406007A04050075040500700405006B04050066040500610405005C040538
:201300000057040500520405004D04050048040500430405003E0404003A04050035040558
:2013200000300404002C04050027040400230405001E0404001A0404001604050011040465
:20134000000D040400090405000404040000040400FC030400F8030400F4030400F003045E
:2013600000EC030400E8030400E4030400E0030400DC030400D8030400D4030400D0030445
:2013800000CC030400C8030300C50303006563686F3A00656E6473746F7073206869743AF9
:2013A000205A00205A3A00656E6473746F7073206869743A20590020593A00656E647374A6
:2013C0006F7073206869743A20580020583A00656E6473746F7073206869743A200045720C
:2013E000726F723A004572723A204D415854454D50204245440054656D70657261747572AD
:20140000652068656174656420626564207377697463686564206F66662E204D41585445EE
:201420004D5020747269676765726564202121004572723A204D494E54454D50003A204594
:2014400078747275646572207377697463686564206F66662E204D494E54454D502074723A
:20146000696767657265642021004572723A204D415854454D50003A20457874727564657A
:2014800072207377697463686564206F66662E204D415854454D5020747269676765726521
:2014A00064202100202D20496E76616C6964206578747275646572206E756D6265722021D6
:2014C00000C6005E01D2005901DF005401EC004F01FB004A010B0145011C0140012F013BEA
:2014E00001430136015901310171012C018B012701A7012201C5011D01E60118010A0213C3
:201500000132020E015D0209018C020401C002FF00F802FA003603F5007A03F000C403EB89
:20152000001604E6007004E100D304DC004005D700B805D2003D06CD00CF06C8006F07C312
:20154000002008BE00E308B900B909B400A50AAF00A70BAA00C30CA500F80DA000490F9BC5
:2015600000B810960044129100F0138C00B9158700A1178200A5197D00C41B7800F91D73ED
:201580000040206E0094226900EF2464004A275F009E295A00E52B5500172E50002E304B53
:2015A0000026324600FA334100A6353C002B37370087383200BB392D00C83A2800B23B2323
:2015C00000793C1E00233D1900B13D1400283E0F008A3E0A00DA3E05001A3F000050494423
:2015E000204175746F74756E652066696E6973686564212050757420746865206C6173745D
:20160000204B702C204B6920616E64204B6420636F6E7374616E74732066726F6D20616219
:201620006F766520696E746F20436F6E66696775726174696F6E2E68005049442041757451
:201640006F74756E65206661696C6564212074696D656F75740020403A006F6B20543A0070
:201660006F6B20423A00504944204175746F74756E65206661696C6564212054656D7065E1
:2016800072617475726520746F6F206869676800204B643A2000204B693A2000204B703A19
:2016A000200020436C61737369632050494420002054753A2000204B753A2000206D617828
:2016C0003A2000206D696E3A200020643A200020626961733A20009F005401AC004F01BA51
:2016E000004A01CA004501DB004001EE003B01020136011901310132012C014D0127016B82
:2017000001D1008C011D01B0011801D801130104020E01350209016A020401A502FF00E642
:2017200002F0002E03F5007E03F000D503EB003604E600A004E1001605DC009805D7002627
:2017400006D200C406CD007007C8002E08C300FE08BE00E209B900DB0AB400EA0BAF00102D
:201760000DAA004E0EA500A60FA00017119B00A21296004614910002168C00D5178700BD90
:20178000198200B71B7D00C11D7800D51F7300F1216E000E2469002A2664003E285F0022EC
:2017A0002E5A00EF2F5500A131500037334B00AF3446000936410045373C006338370065BF
:2017C0003932004B3A2D00173B2800CC3B23006A3C1E00F43C19006D3D1400D43D0F002E2F
:2017E0003E0A007A3E0500BC3E00000000000000000000000000007FFFE00000000000008C
:201800000000000000007000E0000000000000000000000000630C600000000000000000A9
:2018200000000000470E200000000000000000000000004F0F2000000000000000000000B5
:2018400000005F0FA00000000000000000000000005E07A07F80003FC0003FC00041040033
:20186000406020FBC00079E00079E00020820040F020F3C00076E00076E00020820040F018
:2018800020EBC0007EE0007EE0004104004060207B80003DC00039C0008208005E07A07BC1
:2018A00080003BC0003EC0010410005F0FA0FBC00077E00076E0010410004F0F20FBC000D6
:2018C00070E00079E000820800470E20FFC0007FE0007FE000410400630C603F00001F80F1
:2018E000001F80000000007000E01E00000F00000F0001FFFF807FFFE00C000006000006C8
:201900000001FFFF800000000000000000000000000000007FFFE0000000000000000000EA
:201920000000007000E000000000000000000000000061F86000000000000000000000009E
:201940000041F82000000000000000000000000040F020000000000000000000000000409E
:2019600060200000000000000000000000005801A07F80003FC0003FC0004104005C63A04D
:20198000FBC00079E00079E0002082005EF7A0F3C00076E00076E0002082005EF7A0EBC0A2
:2019A000007EE0007EE0004104005C63A07B80003DC00039C0008208005801A07B80003B1D
:2019C000C0003EC001041000406020FBC00077E00076E00104100040F020FBC00070E0009C
:2019E00079E00082080041F820FFC0007FE0007FE00041040061F8603F00001F80001F80B3
:201A0000000000007000E01E00000F00000F0001FFFF807FFFE00C0000060000060001FF45
:201A2000FF800000005900B02000B02000B02000B02000B02000B020002D2D3A2D2D004EB2
:201A40006F2053442063617264005072696E742066726F6D2053440053746F7020707269FD
:201A60006E7400526573756D65207072696E74005061757365207072696E7400436F6E74E7
:201A8000726F6C0050726570617265005574696C69746965730054756E6500496E666F2026
:201AA00073637265656E00F92E2E004D61696E004D3234004D3233202573004D383420587E
:201AC0002059205A204500526573746F7265206661696C73616665004C6F6164206D656D90
:201AE0006F72790053746F7265206D656D6F7279004C434420636F6E7472617374004D6FA9
:201B000074696F6E0054656D7065726174757265004D61696E004C434420636F6E7472617E
:201B20007374004573746570732F6D6D004573746570732F6D6D005A73746570732F6D6D32
:201B4000005A73746570732F6D6D005973746570732F6D6D005973746570732F6D6D005879
:201B600073746570732F6D6D005873746570732F6D6D00412D7265747261637400412D725A
:201B800065747261637400416D6178206500416D6178206500416D6178207A00416D617802
:201BA000207A00416D6178207900416D6178207900416D6178207800416D617820780056B7
:201BC00054726176206D696E005654726176206D696E00566D696E00566D696E00566D6155
:201BE00078206500566D6178206500566D6178207A00566D6178207A00566D617820790026
:201C0000566D6178207900566D6178207800566D617820780056652D6A65726B0056652DAB
:201C20006A65726B00567A2D6A65726B00567A2D6A65726B005678792D6A65726B005678B8
:201C4000792D6A65726B00416363656C00416363656C00436F6E74726F6C005072656865AD
:201C600061742041425320636F6E66005072656865617420504C4120636F6E66005049446A
:201C80002D43005049442D43005049442D44005049442D44005049442D49005049442D4945
:201CA000005049442D50005049442D500020022046616374002002204661637400200220AE
:201CC0004D6178002002204D6178002002204D696E002002204D696E004F6666004F6E20B2
:201CE000004F6666004F6E20004175746F74656D700046616E2073706565640046616E2022
:201D000073706565640042656400426564004E6F7A7A6C6532004E6F7A7A6C6532004E6F77
:201D20007A7A6C65004E6F7A7A6C6500436F6E74726F6C0053746F7265206D656D6F7279B5
:201D40000042656400426564004E6F7A7A6C65004E6F7A7A6C650046616E20737065656423
:201D60000046616E2073706565640054656D70657261747572650053746F7265206D656D23
:201D80006F72790042656400426564004E6F7A7A6C65004E6F7A7A6C650046616E207370B7
:201DA0006565640046616E2073706565640054656D7065726174757265004D6F7665206109
:201DC000786973004D38300053776974636820706F776572206F6E004D38310053776974E1
:201DE000636820706F776572206F666600436F6F6C646F776E0050726568656174204142BF
:201E000053005072656865617420504C4100473238004175746F20686F6D65004D383400DD
:201E200044697361626C65207374657070657273004D61696E004D6F766520302E316D6DB3
:201E4000004D6F766520316D6D004D6F76652031306D6D005072657061726500457874725C
:201E600075646572004D6F7665205A004D6F76652059004D6F76652058004D6F766520616A
:201E8000786973004578747275646572005A0059005800507265686561742041425320426F
:201EA000656400507265686561742041425320416C6C005072656865617420414253203250
:201EC0000050726568656174204142532031005072657061726500507265686561742050EA
:201EE0004C4120426564005072656865617420504C4120416C6C00507265686561742050F2
:201F00004C412032005072656865617420504C4120310050726570617265004368616E671B
:201F2000652046696C616D656E74004D61696E00556E6C6F6164204578742E2031004C6F79
:201F400061642020204578742E203100556E6C6F6164204578742E2030004C6F61642020BA
:201F6000204578742E2030004D61696E004D363030004368616E67652066696C616D656EE8
:201F80007400466C6F77203100466C6F77203100466C6F77203000466C6F77203000466C79
:201FA0006F7700466C6F770046616E2073706565640046616E20737065656400426564000C
:201FC000426564004E6F7A7A6C6532004E6F7A7A6C6532004E6F7A7A6C65004E6F7A7A6CEF
:201FE00065005370656564005370656564004D61696E00436172642072656D6F7665640089
:202000004361726420696E73657274656400FFFFFFFFFFFFFFF0FFFFFFFFFFFFFFF0FFFFF8
:20202000FFF9FFFFFFF0FFFFFFF0FFFFFFF0FFFFFFE07FFFFFF0FFFFFFC03FFFFFF0FFFFAF
:20204000FF801FFFFFF0FFFFFF000FFFFFF0FFFFFE0007FFFFF0FFFFFC0003FFFFF0FFFF20
:20206000F80001FFFFF0FFFFF00000FFFFF0FFFFE000007FFFF0FFFFC000003FFFF0FFFF67
:202080008000003FFFF0FFFF0000001FFFF0FFFE0000000FFFF0FFFE00000007FFF0FFFC9D
:2020A00000000007FFF0FFFC00000003FFF0FFF800000003FFF0FFF800000003FFF0FFF874
:2020C00000000001FFF0FFF800000001FFF0FFF800000001FFF0FFF800000001FFF0FFF864
:2020E00000000001FFF0FFF800000001FFF0FFF800000001FFF0FFF800000001FFF0FFF844
:2021000000000003FFF0FFF800000003FFF0FFFC00000003FFF0FFFC00000007FFF0FFFE09
:2021200000000007FFF0FFFE0000000FFFF0FFFF0000001FFFF0FFFF8000001FFFF0FFFF18
:20214000C000003FFFF0FFFFE000007FFFF0FFFFF00001FFFFF0FFFFFC0003FFFFF0FFFF7F
:20216000FF001FFFFFF0FFFFFFFFFFFFFFF0FFFFFFFFFFFFFFF0FFFFFFFFFFFFFFF0FFFF9A
:20218000FFFFFFFFFFF0FFFFFFFFFFFFFFF0FFFFFFFFFFFFFFF0FFFFFFFFFFFFFFF083FF17
:2021A000FFFE0FFFFFF080FFFFFE03FFFFF0887FFFFE23FFFFF08C70380E7181C0708C6053
:2021C000380E6380C03080E319C607F8C73080E019C60380C7108C6279C6639CC7308C6303
:2021E000F8C67118C6308E30180E7180C0309E38391E79C4C4F0FFFFF9FFFFFFC7F0FFFF16
:20220000F9FFFFFFC7F0FFFFFFFFFFFFFFF000000000000000000000000000000000000028
:2022200000000000000000000000000000000000000000000000000000000000000000009E
:2022400000000000000000000000000000060900FE06018902FE20FFFE07FE06FE000000BB
:20226000060007010606060200808080800080030303060103A0A0A00507070600FF505011
:20228000F850F850500509090600FE2070A8A07028A870200608080600FF40A848102048D8
:2022A00054080507070600FF609090609890680103030602038080800207070602FF4080D1
:2022C00080808080400207070602FF804040404040800505050600008850F850880505059B
:2022E0000600002020F820200204040602FEC0404080050101060002F8020202060200C0BB
:20230000C004060606010010102040808004060606010060909090906003060606010040F9
:20232000C0404040E00406060601006090102040F0040606060100F020601010E00506063E
:2023400006000010305090F810040606060100F080E01010E00406060601006080E09090F1
:2023600060040606060100F0101020404004060606010060906090906004060606010060D8
:202380009090701060020505060200C0C000C0C00207070602FEC0C000C0404080050505C4
:2023A0000600001860806018050303060001F800F8050505060000C0300830C00407070690
:2023C0000100609010604000400506060600007090A8B08070050606060000205088F8882E
:2023E00088050606060000F088F08888F0040606060100609080809060040606060100E0E8
:2024000090909090E0040606060100F080E08080F0040606060100F080E08080800406064E
:20242000060100609080B090600406060601009090F0909090030606060100E040404040B8
:20244000E005060606000038101010906004060606010090A0C0A0909004060606010080CF
:2024600080808080F005060606000088D8A8A8888804060606010090D0B0909090050606AD
:20248000060000708888888870040606060100E09090E080800407070601FF609090D0B027
:2024A0006010040606060100E09090E0909004060606010060904020906005060606000027
:2024C000F82020202020040606060100909090909060040606060100909090F0606005069B
:2024E000060600008888A8A8D8880506060600008850202050880506060600008888502072
:202500002020040606060100F010204080F0030606060100E080808080E0040606060100A7
:20252000808040201010030606060100E020202020E00503030600032050880501010600AC
:20254000FEF80202020602048040040404060100709090700406060601008080E09090E0A9
:202560000404040601007080807004060606010010107090907004040406010060B0C070DE
:20258000040606060100205040E040400406060601FE609090701060040606060100808088
:2025A000E09090900306060601004000C04040E00308080601FE200060202020A040040633
:2025C000060601008080A0C0A090030606060100C040404040E0050404060000D0A8A888ED
:2025E000040404060100E0909090040404060100609090600406060601FEE09090E0808050
:202600000406060601FE709090701010040404060100A0D0808004040406010070C030E0AF
:202620000406060601004040E040502004040406010090909070040404060100909060604D
:2026400005040406000088A8A850040404060100906060900406060601FE90909070906027
:20266000040404060100F02040F0030707060100204040804040200107070602FF80808099
:20268000808080800307070601008040402040408004020206010350A0FFFFFFFFFFFFFF07
:2026A000FFFFFFFFFFFFFFFFFFFFFFFFFFFFFFFFFFFFFFFFFFFFFFFFFFFF00000006000727
:2026C0000106060602008000808080800406060601FF2070A0A070200507070600FF30485F
:2026E00040F04040F8050505060000A8508850A80506060600008850F820F8200107070671
:2027000002FF808080008080800407070601FF708060906010E0030101060105A0060707AB
:20272000060000788494A494847803050506010160A06000E00505050600002850A05028D5
:20274000040303060100F01010040101060102F00607070600007884B4A4A4847804010145
:20276000060105F00403030601026090600507070600FF2020F8202000F80305050601015D
:2027800040A02040E0030505060101C0204020C002020206020440800405050601FF9090FE
:2027A000B0D08005060606000078E8E8682828010101060202800202020602FE40800305A1
:2027C0000506010140C04040E003050506010140A04000E0050505060000A0502850A00555
:2027E00008080600FF40C04050703078100508080600FF40C040506808103805080806008F
:20280000FFC0204030F03078100407070601002000206080906005070706000040202050AF
:20282000708888050707060000102020507088880507070600002050205070888805070753
:20284000060000285020507088880507070600005000205070888805070706000020502008
:202860005070888805060606000078A0F0A0A0B80408080601FE609080809060204004070D
:20288000070601004020F080E080F00407070601002040F080E080F0040707060100205048
:2028A000F080E080F00407070601005000F080E080F00307070601008040E0404040E003D4
:2028C00007070601002040E0404040E003070706010040A0E0404040E0030707060100A0D3
:2028E00000E0404040E00506060600007048E848487004070706010050A090D0B090900464
:202900000707060100402060909090600407070601002040609090906004070706010020B0
:2029200050609090906004070706010050A060909090600407070601005000609090906085
:2029400005050506000088502050880408080601FF1070B0B0D0D0E080040707060100403F
:20296000209090909060040707060100204090909090600407070601002050909090906055
:20298000040707060100500090909090600507070600001020885020202004060606010096
:2029A00080E09090E0800406060601006090A0A090A0040707060100402000709090700443
:2029C000070706010020400070909070040707060100205000709090700407070601005090
:2029E000A00070909070040606060100500070909070040707060100205020709090700522
:202A0000040406000070A8B0780406060601FE70808070204004070706010040200060B08A
:202A2000C07004070706010020400060B0C07004070706010020500060B0C07004060606CE
:202A40000100500060B0C070030707060100804000C04040E0030707060100204000C04075
:202A600040E003070706010040A000C04040E0030606060100A000C04040E004070706012F
:202A8000003060107090906004070706010050A000E09090900407070601004020006090A4
:202AA00090600407070601002040006090906004070706010020500060909060040707064C
:202AC000010050A000609090600406060601005000609090600505050600002000F8002091
:202AE00004040406010070B0D0E004070706010040200090909070040707060100204000E1
:202B000090909070040707060100205000909090700406060601005000909090700409094F
:202B20000601FE2040009090907090600408080601FE8080E09090E080800408080601FE0E
:202B4000500090909070906000060900FE070199032B20FFFE08FE07FE000000060000010A
:202B6000070706020080808080800080030303060104A0A0A00507070600005050F850F852
:202B800050500507070600002070A07028702005070706000048A8502050A890050707060A
:202BA000000040A0A040A890680103030602048080800307070601002040808080402003C7
:202BC0000707060100804020202040800505050600018850F850880505050600012020F8F4
:202BE00020200303030601FF604080050101060003F80303030601FF40E0400507070600D6
:202C00000008081020408080050707060000205088888850200507070600002060A020202A
:202C200020F8050707060000708808304080F8050707060000F80810300888700507070609
:202C4000000010305090F81010050707060000F880B0C8088870050707060000304080B07A
:202C6000C88870050707060000F8081010204040050707060000708888708888700507071F
:202C8000060000708898680810600307070601FF40E0400040E0400307070601FF40E04070
:202CA0000060408004070706010010204080402010050303060002F800F80407070601005F
:202CC0008040201020408005070706000070881020200020050707060000708898A8B08022
:202CE0007005070706000020508888F88888050707060000F04848704848F0050707060021
:202D00000070888080808870050707060000F04848484848F0050707060000F88080F08061
:202D200080F8050707060000F88080F08080800507070600007088808098887005070706E0
:202D40000000888888F8888888030707060100E04040404040E005070706000038101010B2
:202D60001090600507070600008890A0C0A09088050707060000808080808080F8050707E6
:202D80000600008888D8A88888880507070600008888C8A89888880507070600007088882B
:202DA00088888870050707060000F08888F08080800508080600FF7088888888A8700805B3
:202DC0000707060000F08888F0A0908805070706000070888070088870050707060000F825
:202DE000202020202020050707060000888888888888700507070600008888885050502099
:202E0000050707060000888888A8A8D888050707060000888850205088880507070600003F
:202E200088885020202020050707060000F80810204080F8030707060100E0808080808039
:202E4000E005070706000080804020100808030707060100E02020202020E0050303060070
:202E6000042050880501010600FFF80202020602068040050505060000700878887805076D
:202E8000070600008080B0C888C8B0050505060000708880887005070706000008086898FF
:202EA0008898680505050600007088F88070050707060000304840F04040400507070600FB
:202EC000FE788888780888700507070600008080B0C88888880307070601004000C0404033
:202EE00040E00409090601FE10003010101090906005070706000080808890E09088030774
:202F000007060100C04040404040E0050505060000D0A8A8A888050505060000B0C88888C1
:202F20008805050506000070888888700507070600FEB0C888C8B080800507070600FE686E
:202F4000988898680808050505060000B0C880808005050506000070807008F005070706AE
:202F600000004040F040404830050505060000888888986805050506000088885050200552
:202F800005050600008888A8A85005050506000088502050880507070600FE88889868085D
:202FA0008870050505060000F8102040F8040707060100304020C020403001070706020094
:202FC00080808080808080040707060100C02040304020C005030306000448A89000000053
:202FE0000100000000000100000000000100000000000100000000000100000000000100CB
:203000000000000001000000000001000000000001000000000001000000000001000000AB
:2030200000000100000000000100000000000100000000000100000000000100000000008B
:2030400001000000000001000000000001000000000001000000000001000000000001006A
:2030600000000000010000000000010000000000010000000000010000000000010000004B
:2030800000000100000000000100000000000100000000000100000000000100000000002B
:2030A000010000000000060000010707060200800080808080800507070600FF2078A0A002
:2030C000A07820050707060000304840E04048B0050505060000887050708805080806005F
:2030E000FF88885020F8202020010707060200808080008080800508080600FF7080E09068
:2031000048380870030101060107A00507070600007088A8C8A888700406060601017090CB
:20312000B05000F00605050600002448904824040202060102F010040101060103F0050704
:20314000070600007088E8C8C88870050101060007F803030306010440A0400506060600A3
:20316000002020F82020F804050506010360902040F0040505060103E0106010E002020229
:2031800006020640800506060600FF888888C8B08005070706000078E8E868282828010178
:2031A00001060203800202020602FE408003050506010340C04040E0040606060101609038
:2031C000906000F006050506000090482448900609090600FF40C04040E40C143C04060935
:2031E000090600FF40C04040E81404081C0509090600FFC0204020C8182878080507070620
:203200000000200020204088700508080600004020708888F8888805080806000010207058
:203220008888F888880508080600002050708888F8888805080806000048B0708888F88850
:20324000880508080600005000708888F888880508080600002050708888F88888060707CC
:203260000600003C50909CF0909C0509090600FE708880808088702040050808060000402E
:20328000F88080F08080F805080806000010F88080F08080F805080806000020F88080F020
:2032A0008080F805080806000050F88080F08080F80308080601008040E040404040E0032E
:2032C00008080601002040E040404040E003080806010040A0E040404040E00308080601E3
:2032E00000A000E040404040E0050707060000F04848E84848F0050808060000285088C88A
:20330000A89888880508080600004020708888888870050808060000102070888888887097
:20332000050808060000205070888888887005080806000028507088888888700508080654
:20334000000050007088888888700505050600008850205088050707060000709898A8C80F
:20336000C87005080806000040208888888888700508080600001020888888888870050812
:20338000080600002050008888888870050808060000500088888888887005080806000081
:2033A000102088885020202005070706000080F088F0808080050707060000708890A090CB
:2033C00088B005080806000040200070087888780508080600001020007008788878050802
:2033E0000806000020500070087888780508080600002850007008788878050707060000C3
:2034000050007008788878050808060000205020700878887806050506000078147C907CA7
:203420000507070600FE708880887020400508080600004020007088F8807005080806002F
:20344000001020007088F880700508080600002050007088F8807005070706000050007018
:2034600088F88070030808060100804000C0404040E0030808060100408000C0404040E068
:2034800003080806010040A000C0404040E0060A0A0600FEA4A800FC8480808084FC060AD8
:2034A0000A0600FE549400FC8404040484FC050808060000285000B0C8888888050808064C
:2034C00000004020007088888870040A0A0602FE30408090909090909090040A0A0600FEFA
:2034E000C0201090909090909090060707060001448C8C8480403C06070706000188C4C4CA
:20350000840408F00505050600012000F8002005080806000040F0C8888898781005080885
:20352000060000E0F88888888888F80505050600012030F830200508080600002070F8209C
:20354000202020E00509090600FF2070A8A8B8888850200509090600FFE080C0B0A8A8308B
:2035600028280509090600FFF8A88888888888A8F8050A0A0600FE205050505088A8A8881A
:203580007001050800FF060121023520FFFF07FF06FF090050221656808080800080153377
:2035A00053A0A0A00257575050F850F850500257572070A07028702013355580A040A020E3
:2035C00002475740A0A040A0A0502513538080801226564080808080401226568040404014
:2035E00040800245559060F060900255552020F82020113353604080044151F01133534067
:20360000E04002465610102040808012365640A0A0A0A04012365640C0404040E0024656F2
:203620006090106080F0024656F020601090600246562060A0F02020024656F080E0109030
:20364000600246566080E0909060024656F010202040400246566090609090600246566062
:203660009090701060122555C0C000C0C011365660600060408012365620408080402003E0
:203680004353F000F012365680402020408012365640A020400040015858304898A8A89097
:2036A0004030024656609090F09090024656E090E09090E002465660908080906002465662
:2036C000E090909090E0024656F080E08080F0024656F080E0808080024656609080B09050
:2036E000600246569090F0909090123656E040404040E002465670202020A0400246569032
:20370000A0C0A0A0900246568080808080F002465690F0F090909002465690D0F0B0B090CF
:20372000024656609090909060024656E09090E08080014757609090D0B06010024656E0E0
:203740009090E09090024656609040209060123656E04040404040024656909090909060DF
:20376000024656909090906060024656909090F0F090024656909060609090025656888891
:2037800050202020024656F010204080F0123656E080808080E0024656808040201010127D
:2037A0003656E020202020E016325240A0014151F0162252804002445470909070024656BE
:2037C0008080E09090E01234546080806002465610107090907002445460B0C06002465689
:2037E000205040E0404001455560907010600246568080E09090901236564000C04040E022
:203800001137572000202020A040024656808090E09090123656C040404040E0025454D0C3
:20382000A8A8A8024454E090909002445460909060014555E090E0808001455570907010E6
:2038400010024454A0D0808012345460C020C00246564040E040502002445490909070123A
:203860003454A0A0A04002545488A8A850024454906060900145559090709060024454F0AF
:203880002040F0024757304020C0204030221656808080808080024757C02040304020C0BA
:2038A00006425250A0FFFFFFFFFFFFFFFFFFFFFFFFFFFFFFFFFFFFFFFFFFFFFFFFFFFFFF99
:2038C000FFFFFFFFFFFF0900502216568000808080800146562070A0A0702002465620507C
:2038E000E04050A002555588705070880256568850F820F820221757808080008080800284
:2039000047577080E0907010E0173151A002565670A8C8C8A87014355560A06000E003437E
:203920005350A050123353E02020143151E002565670E8D8E8D870173151E015335340A0C4
:203940004012355540E04000E014355540A02040E0143555C020C020C016225240800145DF
:2039600055909090E08002565678E8E868282824115180112252408014355540C04040E0EB
:2039800014355540A04000E0034353A050A0024757808080A060F0200247578080A0D01010
:2039A000207002475780408060A0F02012365640004080A04002475740206090F090900207
:2039C000475720406090F0909002475760906090F0909002475750A06090F0909002475729
:2039E00090006090F0909002475760906090F0909002465670A0A0F0A0B00147576090800A
:203A0000809060400247574020F080E080F00247572040F080E080F00247576090F080E096
:203A200080F00247579000F080E080F01237578040E0404040E01237572040E0404040E0C6
:203A400012375740A0E0404040E0123757A000E0404040E00256567048E8484870024757B8
:203A600050A090D0B0909002475740206090909060024757204060909090600247576090B6
:203A8000609090906002475750A0609090906002475790006090909060123353A040A002FC
:203AA000465670B0B0D0D0E0024757402090909090600247572040909090906002475760DA
:203AC000909090909060024757900090909090600257571020885020202002465680E09040
:203AE00090E0800246566090A0A090A00247574020007090907002475720400070909070D8
:203B00000247572050007090907002475750A0007090907002465650007090907002475777
:203B200060906070909070025454F068B078113555608080604002475740200060B0C06040
:203B400002475720400060B0C06002475760900060B0C060024656500060B0C060123757B7
:203B6000804000C04040E0123757204000C04040E012375740A000C04040E0123656A00067
:203B8000C04040E0024757A040A01070906002475750A000E0909090024757402000609065
:203BA0009060024757204000609090600247576090006090906002475750A0006090906055
:203BC0000246569000609090601235554000E0004002445470B0D0E0024757402000909051
:203BE0009070024757204000909090700247576090009090907002465690009090907001A6
:203C0000485820400090907090600147578080E090E080800147579000909070906000097D
:203C20001200FC0A01E803D720FFFD0EFD0BFD00000009000E010B0B0904008080808080BF
:203C400080800000808004040409030790909090080A0A090000242424FF2424FF242424C2
:203C6000070B0B0901FF107C929050381412927C10070A0A09010042A4A4481010244A4AD5
:203C800084070A0A0901006090909060629488946201040409040780808080030C0C090353
:203CA000FF204040808080808080404020030C0C0903FF80404020202020202040408007D8
:203CC000070709010310925438549210070707090101101010FE1010100204040904FEC052
:203CE000C04080070101090104FE020202090400C0C0070A0A0901000204040810102040E5
:203D00004080070A0A09010038448282828282824438070A0A090100103050901010101035
:203D200010FE070A0A090100384482020408102040FE070A0A090100FE0204081804020285
:203D40008478070A0A090100040C14244484FE040404070A0A090100FE808080F804020285
:203D60008478070A0A0901003C408080B8C482824438070A0A090100FE020404080810104D
:203D80001010070A0A09010038448244384482824438070A0A09010038448282463A020277
:203DA0000478020707090400C0C0000000C0C00209090904FEC0C0000000C0C0408005097D
:203DC00009090200081020408040201008070404090102FE0000FE05090909020080402046
:203DE000100810204080070A0A09010038448202040810100010070A0A09010038449AAA75
:203E0000AAAAAA9C403C070A0A09010010282828447C44828282070A0A090100F8848284AE
:203E2000F884828284F8070A0A0901003C42808080808080423C070A0A090100F8848282C0
:203E40008282828284F8070A0A090100FE808080F880808080FE070A0A090100FE808080A2
:203E6000F88080808080070A0A09010038448280808E82824438070A0A090100828282826C
:203E8000FE8282828282050A0A090200F82020202020202020F8070A0A0901003E0808080B
:203EA000080808888870070A0A09010082848890A0D088848282070A0A0901008080808082
:203EC0008080808080FE070A0A0901008282C6AA928282828282070A0A0901008282C2A222
:203EE000928A86828282070A0A0901007C82828282828282827C070A0A090100F8848282C8
:203F000084F880808080080B0B0901FF384482828282828A443A01070A0A090100F88482CC
:203F20008284F890888482070A0A0901007C8280807C020202827C070A0A090100FE10107F
:203F400010101010101010070A0A09010082828282828282824438070A0A09010082828295
:203F600044444428282810070A0A0901008282828292929292AA44070A0A0901008282441D
:203F800028101028448282070A0A09010082824428101010101010070A0A090100FE02044B
:203FA000081020408080FE040C0C0903FFF080808080808080808080F0070A0A09010080DF
:203FC000404020101008040402040C0C0902FFF010101010101010101010F0070404090150
:203FE00006102844820801010900FFFF03030309030A8040200707070901007C02027E820E
:20400000867A070A0A090100808080BCC2828282C2BC0707070901007C82808080827C07D7
:204020000A0A0901000202027A86828282867A0707070901007C8282FE80827C070A0A0997
:2040400001001C22222020F820202020070A0A0901FD7A84848478807C82827C070A0A0907
:204060000100808080BCC28282828282050A0A090200600000E02020202020F8050D0D0993
:2040800002FD18000038080808080808888870070A0A090100808080848890B0C88482055D
:2040A0000A0A090200E02020202020202020F8070707090100EC9292929292820707070984
:2040C0000100BCC282828282820707070901007C82828282827C070A0A0901FDB8C4828294
:2040E00082C4B8808080070A0A0901FD3A46828282463A0202020707070901009C624240F5
:204100004040400707070901007C82807C02827C0709090901002020FC20202020221C07A2
:2041200007070901008282828282867A070707090100828244442828100707070901008231
:2041400082929292AA4407070709010082442810284482070A0A0901FD42422424241818EC
:20416000109060070707090100FE0408102040FE060B0B0902001C20202020C020202020A5
:204180001C010C0C0904FF808080808080808080808080060B0B090100E0101010100C107C
:2041A000101010E007030309010762928CFFFFFFFFFFFFFFFFFFFFFFFFFFFFFFFFFFFFFF64
:2041C000FFFFFFFFFFFFFFFFFFFFFFFFFFFF00000009000E010B0B090400808000008080B2
:2041E000808080808006080809010008789490A0A47840070A0A0901001C222020F82020A4
:2042000060A25C070606090103827C44447C82070A0A090100828244287C107C10101001CE
:204220000B0B0904FF8080808080008080808080040B0B0902FF60908060909090601090B8
:204240006003020209030BA0A00809090900013C4299A5A1A599423C050707090103609053
:2042600070907800F80708080901011224489090482412060404090102FC04040405010167
:20428000090204F80809090900013C42B9A5BDA9A5423C060101090109FC04040409030659
:2042A00060909060070909090101101010FE10101000FE0406060901046090106080F004AC
:2042C000060609010460902010906003030309030A2040800709090901FE8282828282C644
:2042E000BA8080070A0A0901007E8A8A8A7A0A0A0A0A0A020202090404C0C004030309026B
:20430000FD20906003060609010440C0404040E00506060901047088887000F807080809AC
:2043200001019048241212244890070A0A09010040C0404042E60A121A06070A0A09010031
:2043400040C040404CF2020C101E070A0A0901006090201092660A121A06070A0A090100C5
:204360001000101020408082827C070E0E0901002010080010282828447C44828282070E21
:204380000E0901000810200010282828447C44828282070E0E09010010284400102828288A
:2043A000447C44828282070D0D09010034580010282828447C44828282070D0D0901002857
:2043C000280010282828447C44828282070E0E0901001028281010282828447C44828282F4
:2043E000070A0A0901001E2828284E784888888E070D0D0901FD3C42808080808080423C32
:20440000082418070E0E09010020100800FE808080F880808080FE070E0E0901000810201A
:2044200000FE808080F880808080FE070E0E09010010284400FE808080F880808080FE07E4
:204440000D0D090100282800FE808080F880808080FE050E0E09020040201000F820202080
:204460002020202020F8050E0E09020010204000F82020202020202020F8050E0E090200EC
:2044800020508800F82020202020202020F8050D0D090200505000F8202020202020202072
:2044A000F8070A0A09010078444242F24242424478070D0D0901003458008282C2A2928AF0
:2044C00086828282070E0E090100201008007C82828282828282827C070E0E09010008101E
:2044E00020007C82828282828282827C070E0E090100102844007C82828282828282827CE3
:20450000070D0D0901003458007C82828282828282827C070D0D0901002828007C8282825F
:2045200082828282827C07070709010182442810284482070C0C0901FF027C868A8A929205
:20454000A2A2C27C80070E0E0901002010080082828282828282824438070E0E0901000833
:2045600010200082828282828282824438070E0E0901001028440082828282828282824482
:2045800038070D0D09010028280082828282828282824438070E0E09010008102000828273
:2045A0004428101010101010070A0A0901008080FC828282FC808080060A0A09010038446C
:2045C0004448D04844444458070B0B090100201008007C02027E82867A070B0B0901000805
:2045E0001020007C02027E82867A070B0B090100102844007C02027E82867A070A0A0901C3
:20460000003458007C02027E82867A070A0A0901002828007C02027E82867A070C0C090170
:204620000010282810007C02027E82867A0707070901006C12127E90926C070A0A0901FDAD
:204640007C82808080827C104830070B0B090100201008007C8282FE80827C070B0B0901D4
:2046600000081020007C8282FE80827C070B0B090100102844007C8282FE80827C070A0A4C
:204680000901002828007C8282FE80827C050C0C0902008040200000E02020202020F8053F
:2046A0000C0C0902001020400000E02020202020F8050C0C0902002050880000E02020208F
:2046C0002020F8050B0B09020050500000E02020202020F8070B0B090100483050083C44ED
:2046E0008282824438070A0A090100345800BCC28282828282070B0B090100201008007C24
:2047000082828282827C070B0B090100081020007C82828282827C070B0B0901001028440F
:20472000007C82828282827C070A0A0901003458007C82828282827C070A0A09010028284F
:20474000007C82828282827C07090909010010381000FE001038100709090901FF027C8ADC
:204760008A92A2A27C80070B0B090100402010008282828282867A070B0B0901000810205D
:20478000008282828282867A070B0B090100102844008282828282867A070A0A0901002815
:2047A00028008282828282867A070E0E0901FD0408100042422424241818109060070B0BC4
:2047C0000901FE8080B8C4828282C4B88080070D0D0901FD24240042422424241818109023
:2047E0006000002100240027002A002D003000330001010000040107010A010000220025D2
:204800000028002B002E003100340002010000050108010B01000020002300260029002CD6
:20482000002F0032000001000003010601090105050505070508080808020202020A0A089D
:20484000080404040401010101010101010303030303030303040707070C0C0C0C0C0C0CB3
:204860000C0202020206060606060606060B0B0B0B0B0B0B0B0102102020080810204010B9
:2048800020408002010201080402010102040810204080804020100804020180040201801E
:2048A0004020100804020108040201010204081020408001020408102040800000090A0257
:2048C000080B0C0D0706030401000000000000000000000000000000000000000000000097
:2048E0000000000000000011100F0000000000000000000000000000000000000000000088
:2049000000494E46494E4954594E414ECDCCCC3D0AD7233C17B7D13877CC2B329595E624C3
:204920001FB14F0A000020410000C84200401C4620BCBE4CCA1B0E5AAEC59D740D940B00DE
:20494000FD41C7667DE841F4F84111241FBECFEFD1E2DEBFCDBF00E00CBF15E0A0E0B2E0BB
:20496000ECE8FBE002E00BBF02C007900D92A438B107D9F71BBE16E1A4E8B5E001C01D921F
:20498000AF32B107E1F719E4C8E4D9E404C02297FE010F946C05C034D107C9F70E94FDFF86
:2049A0000D94BA050C940000A0E0B0E0EAEDF4E20D948905EC015B016115710519F0FB01D1
:2049C00091838083F9908F2D90E00F947005892BC9F7FDE2FF1621F4F990EE24E39405C09F
:2049E0002BE2F21609F4F990EE248E0101501040C80161E079E443E050E072D2892BF9F43B
:204A00008E010E5F1F4FC80164E079E445E050E067D2892B19F48E01095F1F4FA114B104A4
:204A200019F0F50111830083E0FC04C070E090E080E813C070E090E080E86FEF07C1C801AE
:204A400069E079E443E050E04BD2892B69F4A114B10429F470E090E080EC6FE7F7C02296B7
:204A6000F501D183C083F6CF8824992440E050E060E070E0EF2DE053EA30A0F5F2E0EF2AB2
:204A80008E2D90E09C0128703070E2FE06C0232B79F50894811C911C2BC0232B19F00894F0
:204AA00081089108DB01CA0112E0880F991FAA1FBB1F1A95D1F7480F591F6A1F7B1F440F8D
:204AC000551F661F771F4E0F511D611D711D483929E9520729E9620729E1720748F084E0EA
:204AE000E82A06C0EE3F31F4E3FC39C098E0E92AF990C0CFE53311F0E53189F529912D324B
:204B000019F4E0E1EE2A05C02B3219F081E090E003C0299182E090E0E22FE053EA3018F0FE
:204B2000C81BD90B1CC020E030E0FCE020383F075CF4C901880F991F880F991F280F391F01
:204B4000220F331F2E0F311DE991E053EA3068F3E4FE03C0309521953F4F820E931ECE2C3C
:204B6000DD24E1FE07C0A114B10421F02197F501D183C083CB01BA010F94D5017B018C01C5
:204B8000F3E0CF22DD2423E0C216D10421F417FB109517F9109557016801C801B70120E0DD
:204BA00030E040E050E00F943501882309F44AC097FE0DC020E2E22E29E4F22E9094819430
:204BC00091089394C0E2D0E000E010E012C098E3E92E99E4F92EF6CFF701259135914591DC
:204BE0005491C601B5010F9415045B016C018C1A9D0A8C169D0684F7D595C7950F5F1F4F1F
:204C00000630110529F08CEF9FEFE80EF91EF1CFC501D6017C018D018C2D880F8D2D881F00
:204C20008F3F51F0C601B50120E030E040E050E00F943501882331F482E290E090932E16A4
:204C400080932D167E2D9F2D802F612F272F392F482F562FB901CA01CDB7DEB7ECE00D9483
:204C6000A5052F923F925F926F927F928F929F92AF92BF92CF92DF92EF92FF920F931F93D9
:204C8000CF93DF938C011B01EA016115710519F0FB0191838083209749F0CE010297839732
:204CA00028F020E030E040E050E0F6C0F801A1908F018A2D90E00F947005892BB9F7FDE28A
:204CC000AF1631F4F801A1908F015524539407C0FBE2AF1619F4F801A1908F015524209770
:204CE00019F0C031D105C1F4F0E3AF1679F4F8018081883711F0883549F4F801A1800E5FEF
:204D00001F4FF2E05F2AC0E1D0E006C0209721F480E3A816E9F427C0C830D10531F1C93019
:204D2000D10524F4C230D10531F50CC0CA30D10589F0C031D105F9F4C12CD12CE12CB8E03F
:204D4000FB2E28C0C12CD12CE12CA0E4FA2E22C0CAE0D0E0FCECCF2EFCECDF2EFCECEF2E84
:204D6000FCE0FF2E17C0C8E0D0E0C12CD12CE12CE0E1FE2E0FC09E01442737FD4095542FB2
:204D800060E070E080E090E80F942D05C901DA016C017D0120E030E040E050E060E03E0167
:204DA000882477FC8094982C70EDB72EBA0CE9E0EB1570F48A2D81548A3118F499ECB92E08
:204DC00006C08A2D81568A3150F589EAB82EBA0C8B2D90E08C179D0714F56F3FE1F0C21691
:204DE000D306E406F506B0F0CA01B901A40193010F94E7049B01AC012B0D311D411D511D6E
:204E00002130F0E03F07F0E04F07F0E85F0710F461E001C06FEFF801A1908F01C5CF2114E0
:204E2000310481F0662331F001501040F1011183008308C051FE1AC002501040F10111835F
:204E4000008314C067FF12C050FC05C02FEF3FEF4FEF5FE704C020E030E040E050E882E252
:204E600090E090932E1680932D1616C050FE08C050954095309521953F4F4F4F5F4F0CC03E
:204E800057FF0AC082E290E090932E1680932D162FEF3FEF4FEF5FE7B901CA01DF91CF913C
:204EA0001F910F91FF90EF90DF90CF90BF90AF909F908F907F906F905F903F902F900895C2
:204EC000FB01DC0105900D920020E1F70895FC0105900020E9F7809590958E0F9F1F08956C
:204EE000FB01DC014150504088F08D9181341CF08B350CF4805E659161341CF06B350CF48C
:204F0000605E861B611171F3990B0895881BFCCFFB01DC014150504048F005900D92002027
:204F2000C9F701C01D9241505040E0F70895FB0155915523A9F0BF01DC014D914517411190
:204F4000E1F759F4CD010590002049F04D9140154111C9F3FB014111EFCF81E090E00197BA
:204F60000895FB01DC0104C08D910190801921F441505040C8F7881B990B0895FB01DC01FD
:204F800002C001900D9241505040D8F70895FB01DC010D900020E9F7119701900D92002024
:204FA000E1F70895FC018191861721F08823D9F7992708953197CF010895FB01DC01019048
:204FC0000D920020E1F70895FB01DC014150504030F08D910190801919F40020B9F7881BBB
:204FE000990B0895FB01DC014150504048F001900D920020C9F701C01D9241505040E0F7C6
:205000000895AEE0B0E0E7E0F8E20D9491050E891F898EE08C831A8309838FEF9FE79E83F3
:205020008D839E01265E3F4FCE010196688D798DA9010AD02F813885020F131FF80110828F
:205040002E96E4E00D94AD05ABE0B0E0EAE2F8E20D9483053C012B015A01FC011782168299
:20506000838181FD03C06FEF7FEFB9C19AE0892E1E010894211C311CF3012381F20123FD84
:20508000859123FF81912F01882309F4A5C1853239F423FD859123FF81912F01853221F43E
:2050A00090E0B301B7D1E8CF982FFF24EE249924FFE1FF15D0F09B3269F09C3228F490324E
:2050C00059F0933291F40EC09D3249F0903369F441E024C052E0F52A84E0F82A28C098E00B
:2050E000F92A25C0E0E1FE2A22C0F7FC29C0892F80538A3070F4F6FE05C0989C902C11247A
:20510000980E15C0E89CE02C1124E80EF0E2FF2A0EC09E3229F4F6FC5FC140E4F42A07C088
:205120009C3619F450E8F52A02C0983649F4F20123FD959123FF91912F01992309F0B8CF83
:20514000892F8554833018F08052833038F444E050E0A40EB51E5FE359830FC0933631F0A2
:20516000933779F0933509F052C01FC0F5018081898342E050E0A40EB51E610101E010E03D
:2051800011C0F501C080D180F6FC03C06FEF7FEF02C0692D70E042E050E0A40EB51EC601F0
:2051A0002ED18C015FE7F52213C0F501C080D180F6FC03C06FEF7FEF02C0692D70E042E061
:2051C00050E0A40EB51EC6010FD18C0150E8F52AF3FE06C018C080E290E0B3011BD1EA9410
:2051E0008E2D90E008171907B0F30DC0F601F7FC8591F7FE81916F0190E0B3010BD1E1106D
:20520000EA94015010400115110581F7E2C0943611F0993661F5F7FE08C0F5012081318133
:205220004281538184E090E00AC0F501808191819C01442737FD4095542F82E090E0A80E14
:20524000B91E9FE6F92257FF09C050954095309521953F4F4F4F5F4FE0E8FE2ACA01B90134
:20526000A1012AE030E002D1D82ED2183FC0953729F41F2D1F7E2AE030E01DC01F2D197F03
:205280009F3661F0903720F4983509F0A5C00FC0903739F0983709F09FC004C028E030E020
:2052A0000AC0106114FD146020E130E004C014FD166020E132E017FF08C0F5016081718118
:2052C0008281938144E050E008C0F50180819181BC0180E090E042E050E0A40EB51EA1018C
:2052E000C5D0D82ED2188FE7F82EF122F6FE0BC05EEFF522D91438F4F4FE07C0F2FC05C0D2
:205300008FEEF82202C01D2D01C0192DF4FE0DC0FE01ED0DF11D8081803319F499EEF922BA
:2053200008C01F5FF2FE05C003C08F2D867809F01F5F0F2DF3FC13C0F0FE0EC01E1510F091
:205340009D2C0AC09D2C9E0C911A1E2D05C080E290E0B3015FD01F5F1E15C8F304C01E1574
:2053600010F4E11A01C0EE2404FF0EC080E390E0B30150D002FF1BC001FD03C088E790E067
:205380000EC088E590E00BC0802F867881F001FF02C08BE201C080E2F7FC8DE290E0B301A1
:2053A00039D005C080E390E0B30134D09A94D914C8F3DA94F101ED0DF11D808190E0B30131
:2053C00029D0DD20B1F705C080E290E0B30122D0EA94EE20C9F750CEF30166817781CB01E9
:2053E0002B96E2E10D949F05FC010590615070400110D8F7809590958E0F9F1F0895FC01E2
:205400006150704001900110D8F7809590958E0F9F1F08950F931F93CF93DF938C01EB01E7
:205420008B8181FF1BC082FF0DC02E813F818C819D812817390764F4E881F9810193F98353
:20544000E88306C0E885F985802F1995892B31F48E819F8101969F838E8302C00FEF1FEF33
:20546000C801DF91CF911F910F910895FA01AA27283051F1203181F1E8946F936E7F6E5F45
:205480007F4F8F4F9F4FAF4FB1E03ED0B4E03CD0670F781F891F9A1FA11D680F791F8A1F51
:2054A000911DA11D6A0F711D811D911DA11D20D009F468943F912AE0269F11243019305DDC
:2054C0003193DEF6CF010895462F4770405D4193B3E00FD0C9F7F6CF462F4F70405D4A33E5
:2054E00018F0495D31FD4052419302D0A9F7EACFB4E0A6959795879577956795BA95C9F711
:2055000000976105710508959B01AC010A2E06945795479537952795BA95C9F7620F731FFE
:20552000841F951FA01D0895FC01128213820895FC018381882311F081E082830895FC014A
:205540008281811112820895CF93DF93DC01FC01EB55FE4F808191810097C9F1019791833A
:205560008083ED01CC5ADF4FFD01ED58FF4F8BE1019009928150E1F7FD01EE5AFF4FAF5879
:20558000BF4F8D919C911197A157B04091838083FD01ED58FF4F20E030E0AD014B555E4F6F
:2055A00010C02F5F3F4FEF01DF015F968BE10D9009928150E1F7858D968D329791838083D8
:2055C000B196DA018D919C912817390750F3DF91CF910895FC0189E595E091838083878130
:2055E000882321F0CF0104960C9416830895CF92DF92EF92FF920F931F93DF93CF93CDB71F
:20560000DEB76F970FB6F894DEBF0FBECDBF8C016B01095A1F4FD8018C9107551040882391
:2056200021F42FE2E22EF12C03C090E5E92EF12CE00EF11E89E595E09A8389831C821B8267
:2056400018861D82B7016C5F7F4FCE010596A60121E00E94028A882391F5EBE3F1E0949187
:2056600008C08091C00085FFFCCF9093C600319694919923B1F7E1E4F1E0949108C0809175
:20568000C00085FFFCCF9093C600319694919923B1F709C08091C00085FFFCCF0894C11C60
:2056A000D11C9093C600F6019081992399F78091C00085FFFCCF8AE08093C6005AC0F8014A
:2056C000EB55FE4F208131812A30310508F040C02F5F3F4F3183208321503040F90185E0AF
:2056E000EE0FFF1F8A95E1F7E21BF30BED58FF4FE00FF11F13C0AF01415E5F4FBF018BE10F
:20570000DB010D90BD01DA010D92AD018150C1F7929182913296968F858F7F972150304073
:20572000BFEF2E3F3B0739F7D801AD58BF4FF70134968BE101900D928150E1F70F581F4F14
:20574000F70182819381D8018D939C9301571040D801AC5ABF4FFE0135968BE101900D9217
:205760008150E1F70E5A1F4F8B819C81F80191838083CE0101962EDF6F960FB6F894DEBF0B
:205780000FBECDBFCF91DF911F910F91FF90EF90DF90CF900895EF92FF920F931F938C0124
:2057A0003EECE32E31E0F32EE80EF91EC7010E94C782C7010E941683F801108211821F91EB
:2057C0000F91FF90EF900895CF92DF92EF92FF920F931F93CF93DF937C016B01DB010D9010
:2057E0000020E9F78D0101501040061B170BEEECF1E0EE0EFF1ED7011C92E2E3FEEFEE0E3F
:20580000FF1ECB016EE470E0CDDBEC01009731F4F8013197EC0DFD1D86010CC060E270E0F3
:20582000C1DB8C010F5F1F4FCE016AE270E0BADBFC0131978DE081838AE082831382C70161
:2058400086539E4FB8010E94FB8A8EEC91E0E80EF91ED7018C91882319F1EBE6F1E0949139
:2058600008C08091C00085FFFCCF9093C600319694919923B1F7E2E7F1E0949108C080916F
:20588000C00085FFFCCF9093C600319694919923B1F78091C00085FFFCCF8AE08093C6005D
:2058A000DF91CF911F910F91FF90EF90DF90CF900895CF93DF93EC018B81882309F43BC0DF
:2058C000EAE9F1E0949108C08091C00085FFFCCF9093C600319694919923B1F7CD57DD4F8E
:2058E000488159816A817B81C358D24083EA9AE02AE030E00E946067E8E9F1E0949108C0F8
:205900008091C00085FFFCCF9093C600319694919923B1F7C558DD4F488159816A817B815B
:2059200083EA9AE02AE030E00E9460678091C00085FFFCCF12C0E8E8F1E0949108C080916C
:20594000C00085FFFCCF9093C600319694919923B1F78091C00085FFFCCF8AE08093C6009C
:20596000DF91CF9108952F923F924F925F926F927F928F929F92AF92BF92CF92DF92EF920D
:20598000FF920F931F93DF93CF93CDB7DEB7AC970FB6F894DEBF0FBECDBF5C014B01FC0105
:2059A0008381882309F434C1C50182539E4F0E941683F50112821A8A1D8A198A188A89E5FB
:2059C00095E09F878E875EE4C52ED12CCA0CDB1C2FE230E0A20EB31EF601B182A08221ED1C
:2059E0003FEFA20EB31EF40180818F3209F08DC0C4016FE270E0D6DA7C010894E11CF11CC2
:205A00003E010894611C711C260142E1242E312C2C0E3D1E75C0C7016FE270E0C3DA6C016B
:205A2000009709F480C0E816F90608F07CC08C010E191F09C301B701A801D4DA060D171D6B
:205A4000F8011082F30107C08091C00085FFFCCF31969093C60090819923B1F78091C000EA
:205A600085FFFCCFFAE0F093C600F201608171816115710519F460E070E002C06C5F7F4F0A
:205A8000C101A30121E00E94028A882371F5E6EDF1E0949108C08091C00085FFFCCF90938C
:205AA000C600319694919923B1F7FE01319607C08091C00085FFFCCF31969093C600908162
:205AC0009923B1F7E4EDF1E0949108C08091C00085FFFCCF9093C600319694919923B1F77A
:205AE0008091C00085FFFCCF8DC02EE030E02C0F3D1FF2013183208376010894E11CF11C1D
:205B0000E114F10409F087CF0BC080E590E0A80EB91EF601B182A08220EB3FEFA20EB31E19
:205B2000D82C092D02C0DE2C0F2D8EE490E0A80EB91EF5018081918122EB3FEFA20EB31EEF
:205B4000009719F480E090E001C004966D2D702F0E94CE8A882339F1E6ECF1E0949108C0DE
:205B60008091C00085FFFCCF9093C600319694919923B1F78D2D902F9C01F90107C08091E4
:205B8000C00085FFFCCF31969093C60090819923B1F783E892E0A80EB91EF501108211824C
:205BA0001282138232C0EEEAF1E0949108C08091C00085FFFCCF9093C60031969491992383
:205BC000B1F78D2D902F9C01F90107C08091C00085FFFCCF31969093C60090819923B1F701
:205BE000ECEAF1E0949108C08091C00085FFFCCF9093C600319694919923B1F78091C000E7
:205C000085FFFCCF8AE08093C600CE010E96E2DCAC960FB6F894DEBF0FBECDBFCF91DF9168
:205C20001F910F91FF90EF90DF90CF90BF90AF909F908F907F906F905F904F903F902F90F2
:205C40000895BF92CF92DF92EF92FF920F931F93CF93DF938C01EB018FE28993EE24E394BB
:205C6000FF2475EAC72E71E0D72EC00ED11E6FE1B62E14C0FB9CC00111248D589F4F800FA3
:205C8000911FBE010E94268302C02196E3948881882319F08CE88E15C0F7F3942F2D30E0DC
:205CA000F601808191812817390720F3E7FC07C0C80182539E4FBE010E94268301C01882AE
:205CC000DF91CF911F910F91FF90EF90DF90CF90BF9008952F923F924F925F926F927F9266
:205CE0008F929F92AF92BF92CF92DF92EF92FF920F931F93DF93CF93CDB7DEB7AD970FB692
:205D0000F894DEBF0FBECDBF6C014B014DA7DC0113968C91882309F448C3E1EDF1E0CE0E83
:205D2000DF1ED6018C91EFE2FEEFCE0EDF1E882309F418C1222309F0E0C029EE31E0C20E84
:205D4000D31ED6018C91E7E1FEEFCE0EDF1E882371F1EBE6F1E0949108C08091C00085FFDF
:205D6000FCCF9093C600319694919923B1F7EEEAF2E0949108C08091C00085FFFCCF909345
:205D8000C600319694919923B1F783EA9AE061E070E04AE050E00E94AF678091C00085FF0E
:205DA000FCCF8AE08093C6000E945142FEC2EBE3F1E0949108C08091C00085FFFCCF909311
:205DC000C600319694919923B1F7E5E9F2E0949108C08091C00085FFFCCF9093C600319650
:205DE00094919923B1F7F40107C08091C00085FFFCCF31969093C60090819923B1F7EAE847
:205E0000F2E0949108C08091C00085FFFCCF9093C600319694919923B1F7C6012EEE31E076
:205E2000C20ED31EB6010DDF4BEF5FEFC40ED51ED6019C91E7E1FEEFCE0EDF1E8DE8989F73
:205E4000F0011124E251FE4FEC0DFD1D07C08091C00085FFFCCF31969093C6009081992325
:205E6000B1F7E4E8F2E0949108C08091C00085FFFCCF9093C600319694919923B1F723E88B
:205E800032E0C20ED31ED6014D915D916D917C91EDE7FDEFCE0EDF1E83EA9AE02AE030E0E7
:205EA0000E9460678091C00085FFFCCF8AE08093C600A60147515E4FDA012C91E22FF0E0B1
:205EC000EE0FFF1FEE0FFF1FEC0DFD1DE651FE4F83E892E0C80ED91ED6014D905D906D90AD
:205EE0007C908DE79DEFC80ED91E40825182628273822F5FDA012C932FC0EBE3F1E0949180
:205F000008C08091C00085FFFCCF9093C600319694919923B1F7E3E7F2E0949108C08091C6
:205F2000C00085FFFCCF9093C600319694919923B1F7F40107C08091C00085FFFCCF319676
:205F40009093C60090819923B1F78091C00085FFFCCF8AE08093C600C60182539E4F0E9455
:205F6000168339C0E9EEF1E0CE0EDF1ED6011C92E7E1FEEFCE0EDF1EEBE3F1E0949108C06F
:205F80008091C00085FFFCCF9093C600319694919923B1F7E2E6F2E0949108C08091C00050
:205FA00085FFFCCF9093C600319694919923B1F7F40107C08091C00085FFFCCF3196909393
:205FC000C60090819923B1F78091C00085FFFCCF8AE08093C600D60112961C921A8A1D8AAB
:205FE000198A188A89E595E09F878E87FEE4AF2EB12CAC0CBD1CEFE2F0E0CE0EDF1ED501C1
:20600000CD92DC92E1EDFFEFCE0EDF1ED4018C918F3209F090C0C4016FE270E00E94D22721
:206020007C010894E11CF11C3E010894611C711C2501E2E12E2E312C2C0E3D1E77C0C70122
:206040006FE270E00E94D2275C01009709F481C0E816F90608F07DC08C010E191F09C30100
:20606000B701A8010E94F227060D171DF8011082F30107C08091C00085FFFCCF319690936D
:20608000C60090819923B1F78091C00085FFFCCFFAE0F093C600D2016D917C9161157105B8
:2060A00019F460E070E002C06C5F7F4FC101A30121E00E94028A882371F5EEE4F2E0949179
:2060C00008C08091C00085FFFCCF9093C600319694919923B1F7FE01319607C08091C00041
:2060E00085FFFCCF31969093C60090819923B1F7ECE4F2E0949108C08091C00085FFFCCF7D
:206100009093C600319694919923B1F78091C00085FFFCCF1BC12EE030E02C0F3D1FF201A2
:206120003183208375010894E11CF11CE114F10409F085CF0BC040E550E0C40ED51ED501FA
:20614000CD92DC92E0EBFFEFCE0EDF1E082DF92C01C00E2DF601E25BFF4F2DA5222309F4F4
:20616000B1C0608171816115710519F460E070E002C06C5F7F4FC60182539E4F402F5F2D73
:2061800021E00E94028A882309F46CC04FED51E0C40ED51ED6014D915D916D917C91ECE947
:2061A000F0E0CE0EDF1ED6014D935D936D937C931397E5E8FDEFCE0EDF1EEEE3F2E094917C
:2061C00008C08091C00085FFFCCF9093C600319694919923B1F7802F9F2D9C01F90107C0C5
:2061E0008091C00085FFFCCF31969093C60090819923B1F7E6E3F2E0949108C08091C00001
:2062000085FFFCCF9093C600319694919923B1F783EA9AE02AE030E00E9460678091C000BB
:2062200085FFFCCF8AE08093C60023E832E0C20ED31ED6011D921D921D921C921397E8E2E8
:20624000F2E0949108C08091C00085FFFCCF9093C600319694919923B1F78091C00085FFD1
:20626000FCCF99C0E4E1F2E0949108C08091C00085FFFCCF9093C600319694919923B1F71D
:20628000802F9F2D9C01F90107C08091C00085FFFCCF31969093C60090819923B1F7E2E11D
:2062A000F2E0949108C08091C00085FFFCCF9093C600319694919923B1F78091C00085FF71
:2062C000FCCF44C0608171816115710519F460E070E002C06C5F7F4FC60182539E4F402F40
:2062E0005F2D26E50E94028A882309F033C0EEEFF1E0949108C08091C00085FFFCCF909364
:20630000C600319694919923B1F7802F9F2D9C01F90107C08091C00085FFFCCF3196909384
:20632000C60090819923B1F7ECEFF1E0949108C08091C00085FFFCCF9093C6003196949194
:206340009923B1F78091C00085FFFCCF8AE08093C60028C081E0F6018083EAEEF1E0949165
:2063600008C08091C00085FFFCCF9093C600319694919923B1F7F40107C08091C00085FFEB
:20638000FCCF31969093C60090819923B1F78091C00085FFFCCF8AE08093C600802F9F2D2F
:2063A0000E94E8E8CE010E9615D9AD960FB6F894DEBF0FBECDBFCF91DF911F910F91FF90D1
:2063C000EF90DF90CF90BF90AF909F908F907F906F905F904F903F902F900895EF92FF927B
:2063E0000F931F93CF93DF93EC010E94E6908E0107511E4FD8018C919EECE92E91E0F92EED
:20640000EC0EFD1E882399F1C7010E941683F8016081615060838DE8689FB00111246251AC
:206420007E4F6C0F7D1FCE0141E021E053DCD801EC91F0E0EE0FFF1FEE0FFF1FEC0FFD1FE5
:20644000E651FE4F4081518162817381CD57DD4F488359836A837B83C358D240C7010E94D5
:20646000FD818B81882389F181E08A832EC00E94C390C7010E9416831A828FE291E00E94F9
:2064800041658091140B882301F11092140B80914708C82FD0E0CC0FDD1FC95ADD4E6881B3
:2064A0007981882777FD8095982F0F94D70120918F043091900440919104509192040F944F
:2064C0004303181614F419821882DF91CF911F910F91FF90EF900895FC0181E08183CF010E
:2064E00040E021E0F7CBEF92FF920F931F93CF93DF938C01FC01138286A9882321F0C801AC
:20650000C3960E94168327EAE22E21E0F22EE00EF11EC70160E045E30E94C380882309F5EA
:20652000EBE3F1E0949108C08091C00085FFFCCF9093C600319694919923B1F7EFE1F3E0D3
:20654000949108C08091C00085FFFCCF9093C600319694919923B1F78091C00085FFFCCFD5
:206560007DC0E801C455DE4FCE01B70141E00E948C8B882341F5CE01B70140E00E948C8B0D
:20658000882309F5EBE6F1E0949108C08091C00085FFFCCF9093C600319694919923B1F76A
:2065A000ECE0F3E0949108C08091C00085FFFCCF9093C600319694919923B1F78091C00025
:2065C00085FFFCCF4BC0C801C396BE010E940886882309F5EBE6F1E0949108C08091C00047
:2065E00085FFFCCF9093C600319694919923B1F7ECEFF2E0949108C08091C00085FFFCCF59
:206600009093C600319694919923B1F78091C00085FFFCCF23C081E0F8018383EBE3F1E03F
:20662000949108C08091C00085FFFCCF9093C600319694919923B1F7E1EFF2E0949108C085
:206640008091C00085FFFCCF9093C600319694919923B1F78091C00085FFFCCF8AE0809344
:20666000C600D801AC5ABF4FF801F3968BE101900D928150E1F7F80181A992A90E5A1F4F6C
:20668000F8019183808302551040C8018F96025B1F4FF80191838083DF91CF911F910F915A
:2066A000FF90EF9008952F923F924F925F926F927F929F92AF92BF92CF92DF92EF92FF9212
:2066C0000F931F93DF93CF93CDB7DEB7CC55D0400FB6F894DEBF0FBECDBF6C01662311F505
:2066E00027E832E0C20ED31ED6018C91E9E7FDEFCE0EDF1E882309F4E3C02FE732E0C20EEC
:20670000D31ED601ED90FD900D911C91E1E8FDEFCE0EDF1E0E9442FDE616F70608071907C5
:2067200008F4CEC027E832E0C20ED31ED6011C92E9E7FDEFCE0EDF1ED60113968C9188238B
:2067400039F4C601D0DEF6018381882309F4B8C000D000D0EDB7FEB731967E010894E11CA4
:20676000F11CADB7BEB71296FC92EE92119782E691E093838283D6019D968D919C919E9757
:20678000958384830E9401288701EDB7FEB736960FB6F894FEBF0FBEEDBF57010AC0D801E0
:2067A0008C91992787FD90950F947805F80181938F01F50101900020E9F73197EA19FB0940
:2067C000802F8E198E175CF363E3A62EB12CAC0CBD1CC50140E050E060E070E00E94FD8121
:2067E00099245DE3E52EF12CEC0EFD1E2E010894411C511C4FE1642E712C6C0E7D1E3BE52E
:20680000232E31E0332E42C0D8018C9190E00F947805F80181938F01D7010D900020E9F71B
:206820001197AE19BF09802F8E198A176CF327968FAD27978E3751F1C701B20145E050E03D
:206840000E94E427009711F500D000D0EDB7FEB73196ADB7BEB712967C926E921197338242
:206860002282558244820E940128EDB7FEB736960FB6F894FEBF0FBEEDBFC3010E94BA65DB
:2068800087E591E00E94416599249394C501B70140E050E00E942785181614F48701BCCF8A
:2068A000992041F48FEF9FEFD6019E969C938E939D9706C0F60185A596A5019696A785A72D
:2068C000C45ADF4F0FB6F894DEBF0FBECDBFCF91DF911F910F91FF90EF90DF90CF90BF90DA
:2068E000AF909F907F906F905F904F903F902F9008952F923F924F925F926F927F928F928C
:206900009F92AF92BF92CF92DF92EF92FF920F931F93DF93CF93CDB7DEB7CF58D0400FB693
:20692000F894DEBF0FBECDBF8C013B016A0184E090E0C80ED91EF8017196C757DF4FF98338
